:02000004F0000A
:10000000732510FC970500009385451B6B10B50008
:10001000EF00801A130510006B000500732510FC1B
:1000200097050000938585236B10B500EF00C02273
:10003000130510006B00050017150000130585441B
:10004000171600001306464E3306A640930500001F
:10005000EF001041170500001305452FEF00D024D5
:0C006000EF004025EF00C0036F004000DF
:10006C00130101FF930500002324810023261100B6
:10007C0013040500EF009055171500000325453FAC
:10008C008327C50363840700E7800700130504007A
:10009C00EF000011130101FB930710002326F10060
:1000AC00232EF10297170000938787F723248104EE
:1000BC001305C100171400001304443C130601007F
:1000CC00130780002320F100970500009385450A53
:1000DC00971700009387C7F2232611042322E1020D
:1000EC002322F10023248100232C0100EF008071D6
:1000FC001717000013074738032504008327070050
:10010C0083254400032684008326C400B387A700FC
:10011C00B387B7000325040183254401B387C700C7
:10012C00B387D700032684018326C401B387A700B5
:10013C00B387B7008320C10403248104B387C700AD
:10014C00B387D7002320F700130500001301010526
:10015C006780000093070000638807001705000004
:10016C001305051E6F00901367800000F32720CC49
:10017C0083A6050003A6450093972700B386F600D7
:10018C003306F60003A7850083A6060003260600A7
:10019C00B307F7003387C60023A0E7006780000091
:1001AC0093010400130500006B0005001305F0FF1C
:1001BC006B00050097210000938181D4370100FF6B
:1001CC00732510CC9315A5003301B14093050000A5
:1001DC003305B50217120000130232383302A200A5
:1001EC00137202FCF32630CC638606001305000064
:1001FC006B000500678000001305F0FF67800000AE
:10020C001305F0FF678000001305000067800000F5
:10021C0013050000678000001305F0FF67800000E5
:10022C001305F0FF67800000730010001305000039
:10023C006780000013050600678000001305F0FFBF
:10024C0067800000732540F167800000130101FFF7
:10025C0023261100232481009307F0FF6B800700F5
:10026C001306000013050200971500009385C5D8EE
:10027C0013040200EF00D003130500001306000066
:10028C00930500003305A400EF00D01CF32730CCFD
:10029C0093B717006B8007008320C10003248100F3
:1002AC001301010167800000130101FF2324810069
:1002BC002320210197170000938707D417140000FF
:1002CC00130484D323261100232291003389874001
:1002DC00638087021359294093040000832704008C
:1002EC009384140013044400E7800700E3E824FF20
:1002FC0097170000938787D0171400001304C4CFFE
:10030C003389874013592940638E8700930400007A
:10031C00832704009384140013044400E78007002F
:10032C00E3E824FF8320C1000324810083244100DF
:10033C00032901001301010167800000130101FF73
:10034C002324810097170000938747CB17140000D4
:10035C001304C4CA3304F440232291002326110051
:10036C0093542440638004021304C4FF3304F40048
:10037C00832704009384F4FF1304C4FFE780070071
:10038C00E39804FE8320C1000324810083244100F0
:10039C001301010167800000130101FF23261100E6
:1003AC00232481002322910023202101732650CC89
:1003BC00732730CCF32600CCF32500FC97170000F4
:1003CC009387C70D13162600B387C70083A40700B5
:1003DC0083A7040103A6C4003329F7003304E60203
:1003EC003309C9006354F700930707003304F40082
:1003FC0003A784003304B402B307D9023304E40026
:10040C003304F40033098900635E240183A70400DC
:10041C0083A544001305040013041400E7800700AF
:10042C00E31689FE03A74401930700006BC0E700A5
:10043C008320C1000324810083244100032901008F
:10044C001301010167800000732750CC732520CC69
:10045C00971700009387870413172700B387E700CB
:10046C0083A7070083A6870003A7070083A547007F
:10047C003305D50067000700130101FF2326110087
:10048C009307F0FF6B800700EFF01FF1F32730CCE0
:10049C0093B717006B8007008320C1001301010183
:1004AC0067800000130101FE232E1100232C810014
:1004BC00232A9100232821012326310123244101E1
:1004CC00732650CC732730CCF32600CC732500FC5C
:1004DC0097170000938787FC13162600B387C70075
:1004EC0003A407008327440103260401332AF700E1
:1004FC00B304E602330ACA006354F70093070700FB
:10050C00B384F400832504000327C40003A9050069
:10051C0083A94500B384A402B307DA02B384E400D0
:10052C00B384F400330A9A00B309390363C0440757
:10053C006F0000080347E4018346D40133D7E4403D
:10054C00B3073703B387F440638006068346F40190
:10055C00B3D6D740B388260303AE450103A30501E8
:10056C0003A6C500032844000325840093841400CB
:10057C003307C701B3866600B38717413386C700BC
:10058C00E700080063069A02832504008347C40130
:10059C00E39207FA33C734038346D401B307370316
:1005AC00B387F440E39406FAB3C627036FF09FFABF
:1005BC0003278401930700006BC0E7008320C1016F
:1005CC000324810183244101032901018329C100F2
:1005DC00032A81001301010267800000F32650CC2E
:1005EC00F32720CC17170000130747EB9396260030
:1005FC003307D70003250700832505000326C50014
:10060C000347C50183A8050083A64500B387C7002F
:10061C00B386D802630807040347E5010346D501F6
:10062C0033D7E740B306D702B387D7406306060437
:10063C000348F50133D8074183A6050103AE4501F4
:10064C0003A6C500B306D8003308180303234500DE
:10065C00032585003307C701B38707413386C700DD
:10066C006700030033C7D7020346D501B306D70290
:10067C00B387D740E31E06FA33C817036FF0DFFBCE
:10068C00130101FF232611009307F0FF6B80070075
:10069C00EFF05FE1F32730CC93B717006B800700C6
:1006AC008320C1001301010167800000130101FDCB
:1006BC0023261102232481022322910223202103C9
:1006CC00F32620FCF32810FCF32400FCF32750CC79
:1006DC001307F0016348F70833881403130710005D
:1006EC006354A8003347050363CAE60863DCE706D6
:1006FC009386F6FF3343E502130803006396F60076
:10070C003365E50233086500334998023364980277
:10071C00634C190713051000B346190363860600D2
:10072C0013850600B366190317170000130707D7C4
:10073C002324B1002326C100232AA100232CD1009D
:10074C00232E01003303F30293972700B307F7001E
:10075C001307810023A0E70023286100634C2003CA
:10076C00631604068320C102032481028324410200
:10077C00032901021301010367800000138706009F
:10078C00E3C8E7F66FF01FFE930600001305100098
:10079C006FF09FF99307090063D428019387080031
:1007AC00232EF10017070000130747CD6B90E700CD
:1007BC009307F0FF6B800700EFF01FBEF32730CCE0
:1007CC0093B717006B800700E30E04F83309990206
:1007DC0093041000339884001308F8FF2328210198
:1007EC006B000800EFF05FC66B8004008320C10231
:1007FC000324810283244102032901021301010312
:10080C0067800000130101FD8322050003284500C9
:10081C0083268500232611022324810223229102A0
:10082C0023202103732320FCF32810FC732400FCE9
:10083C00732750CC9307F00163C8E70E33085802B6
:10084C0093071000B3860603338E88026354DE00D0
:10085C00B3C7C6036346F30E6358F70C1303F3FFD9
:10086C0033CFF60293040F006316E300B3E6F602EF
:10087C00B384E60133C98402B3E484026348190DDE
:10088C00930E1000334E190363060E00930E0E00E8
:10089C00336E1903D37708D0938FF2FF9307F8FFC9
:1008AC00D38607E0D3F702D0B3FF5F0093D676412F
:1008BC00B3F7070193BF1F00938616F8939F8F0021
:1008CC0093B7170093F6F60F93960601B3E7F7016B
:1008DC00B3E7D70097160000938646BC2320A100EF
:1008EC002322B1002324C1002328D101232AC101D2
:1008FC00232C01003303EF02538F07E0131727005B
:10090C003387E60013587F41130818F81318880131
:10091C00B3E70701232EF1002320270023266100D3
:10092C00634C2003639604068320C10203248102D6
:10093C008324410203290102130101036780000093
:10094C0093070300E34CF7F06FF01FFE130E00004B
:10095C00930E10006FF01FF49307090063D4280165
:10096C0093870800232CF10017070000130787D189
:10097C006B90E7009307F0FF6B800700EFF09FB2DE
:10098C00F32730CC93B717006B800700E38E04F885
:10099C003309890213041000B31494009384F4FFF8
:1009AC00232621016B800400EFF05FC36B00040071
:1009BC008320C10203248102832441020329010202
:1009CC001301010367800000130181FE232A11002B
:1009DC0023284101232631012324210123229100C4
:1009EC0023208100130A050093890500732900FC5C
:1009FC00F32400CC13040000B302944013B3120090
:100A0C006B2003006396020013850900E7000A00BF
:100A1C006B30000013041400E34024FF83204101D9
:100A2C00032A01018329C100032981008324410089
:100A3C000324010013018101678000001305F0FFFE
:100A4C00678000001305F0FF678000001305F0FFBE
:100A5C00678000001305F0FF678000001305F0FFAE
:100A6C00678000001305F0FF67800000130500008D
:100A7C00678000001305F0FF678000001305F0FF8E
:100A8C00678000001305F0FF678000001305F0FF7E
:100A9C00678000001305F0FF6780000093050500D8
:100AAC009306000013060000130500006F00402899
:100ABC00B347B50093F73700B308C5006394070636
:100ACC009307300063F0C7069377350013070500D2
:100ADC00639A070613F6C8FFB306E64093070002B5
:100AEC0063CED70893860500930707006378C70287
:100AFC0003A80600938747009386460023AE07FFA2
:100B0C00E3E8C7FE9307F6FFB387E74093F7C7FF09
:100B1C00938747003307F700B385F5006368170127
:100B2C0067800000130705006378150583C705006F
:100B3C001307170093851500A30FF7FEE398E8FE43
:100B4C006780000083C605001307170093773700F2
:100B5C00A30FD7FE93851500E38E07F683C6050019
:100B6C001307170093773700A30FD7FE9385150053
:100B7C00E39A07FC6FF01FF667800000130101FF7A
:100B8C00232681001304000283A3050083A24500E1
:100B9C0083AF850003AFC50083AE050103AE4501ED
:100BAC0003A3850103A8C50183A605021307470209
:100BBC00B307E640232E77FC232057FE2322F7FFB2
:100BCC002324E7FF2326D7FF2328C7FF232A67FE0A
:100BDC00232C07FF232ED7FE93854502E346F4FA18
:100BEC0093860500930707006378C70203A80600E5
:100BFC00938747009386460023AE07FFE3E8C7FEC2
:100C0C009307F6FFB387E74093F7C7FF9387470037
:100C1C003307F700B385F500636817010324C1009F
:100C2C00130101016780000083C70500130717003B
:100C3C0093851500A30FF7FEE382E8FE83C705003A
:100C4C001307170093851500A30FF7FEE39EE8FC2E
:100C5C006FF0DFFC1303F00013070500637EC30283
:100C6C009377F7006390070A63920508937606FF63
:100C7C001376F600B386E6002320B7002322B700D4
:100C8C002324B7002326B70013070701E366D7FE1A
:100C9C006314060067800000B306C34093962600D9
:100CAC0097020000B38656006780C6002307B70082
:100CBC00A306B7002306B700A305B7002305B700AA
:100CCC00A304B7002304B700A303B7002303B700A2
:100CDC00A302B7002302B700A301B7002301B7009A
:100CEC00A300B7002300B7006780000093F5F50F51
:100CFC0093968500B3E5D50093960501B3E5D50031
:100D0C006FF0DFF69396270097020000B38656002B
:100D1C0093820000E78006FA93800200938707FF16
:100D2C003307F7403306F600E378C3F66FF0DFF3D2
:100D3C00170700000327C77383278714638C0704E6
:100D4C0003A747001308F001634EE80613182700A9
:100D5C0063060502338307012324C30883A887187D
:100D6C00130610003316E600B3E8C80023A41719C5
:100D7C002324D310930620006304D5021307170015
:100D8C0023A2E700B387070123A4B70013050000D3
:100D9C00678000009307C7142324F7146FF05FFAE1
:100DAC0083A6C7181307170023A2E700B3E6C600F3
:100DBC0023A6D718B387070123A4B7001305000097
:100DCC00678000001305F0FF67800000130101FD30
:100DDC00232C4101170A0000032A8A6923202103CE
:100DEC0003298A142326110223248102232291022F
:100DFC00232E3101232A510123286101232671015D
:100E0C002324810163000904130B0500938B050057
:100E1C00930A10009309F0FF832449001384F4FF14
:100E2C006342040293942400B304990063840B047A
:100E3C0083A74410638077051304F4FF9384C4FFE5
:100E4C00E31634FF8320C102032481028324410270
:100E5C00032901028329C101032A8101832A41014B
:100E6C00032B0101832BC100032C8100130101030F
:100E7C00678000008327490083A644009387F7FF0F
:100E8C00638E870423A20400E38806FA832789185B
:100E9C0033978A00032C4900B377F700639207025B
:100EAC00E78006000327490083278A14631487010F
:100EBC00E38427F9E38807F8138907006FF0DFF55F
:100ECC008327C91883A544083377F700631C0700F0
:100EDC0013050B00E78006006FF0DFFC232289006E
:100EEC006FF09FFA13850500E78006006FF09FFBFB
:100EFC001000000000000000037A5200017C010188
:100F0C001B0D0200100000001800000030FBFFFF5A
:100F1C000800000000000000100000002C00000081
:100F2C0024FBFFFF08000000000000001000000080
:100F3C004000000018FBFFFF08000000000000004C
:100F4C0010000000540000000CFBFFFF0800000024
:100F5C0000000000100000006800000000FBFFFF14
:100F6C000800000000000000100000007C000000E1
:100F7C00F4FAFFFF08000000000000001000000061
:100F8C0090000000E8FAFFFF0800000000000000DD
:100F9C0010000000A4000000DCFAFFFF08000000B5
:100FAC000000000010000000B8000000D0FAFFFFA5
:100FBC00080000000000000010000000CC00000041
:100FCC00C4FAFFFF08000000000000001000000041
:100FDC00E0000000B8FAFFFF08000000000000006D
:100FEC0010000000F4000000ACFAFFFF0800000045
:040FFC0000000000F1
:04100000600100F09B
:1010080003000000020000000800000002000000C9
:1010180009000000050000000100000003000000B6
:1010280000000000010000000300000005000000AF
:101038000400000005000000060000000700000092
:101048000000000000000000000000003C1300F059
:10105800A41300F00C1400F00000000000000000D1
:101068000000000000000000000000000000000078
:101078000000000000000000000000000000000068
:101088000000000000000000000000000000000058
:101098000000000000000000000000000000000048
:1010A8000000000000000000000000000000000038
:1010B8000000000000000000000000000000000028
:1010C8000000000000000000000000000000000018
:1010D8000000000000000000000000000000000008
:1010E80000000000000000000000000000000000F8
:1010F80001000000000000000E33CDAB34126DE695
:10110800ECDE05000B0000000000000000000000FD
:1011180000000000000000000000000000000000C7
:1011280000000000000000000000000000000000B7
:1011380000000000000000000000000000000000A7
:101148000000000000000000000000000000000097
:04000005F000000007
:00000001FF
