:0200000480007A
:10000000732510FC970500009385451C6B10B50007
:10001000EF00801B130510006B000500732510FC1A
:1000200097050000938585246B10B500EF00C02371
:10003000130510006B00050017550000130545CD92
:1000400017560000130606D83306A6409305000095
:10005000EF3000351705000013054530EF30001E66
:0C006000EF004026EF0080006F30801E93
:10006C00130101FE97570000938787C823282101AD
:10007C002326310103A9070083A9470097570000E5
:10008C00938787C7232C8100232A910003A40700A0
:10009C0083A447001305090013060400938604008B
:1000AC0093850900232E1100EF00D01F97570000F5
:1000BC00938707C8130604009386040023A0A700A7
:1000CC0023A2B7001305090093850900EF20C0593E
:1000DC0097570000938747C51306090093860900BC
:1000EC0023A0A70023A2B7001305040093850400E6
:1000FC00EF20805797570000938787C113060400A1
:10010C009386040023A0A70023A2B70013050900BF
:10011C0093850900EF10D05A97570000938747C07A
:10012C00130604009386040023A0A70023A2B700A3
:10013C001305090093850900EF10804C97570000B8
:10014C00938787BC23A0A70023A2B700130609003E
:10015C00938609001305040093850400EF10404AB0
:10016C0097570000938747BB23A0A70023A2B70093
:10017C009307F0FF6B8007008320C10103248101EA
:10018C0083244101032901018329C10013051000B7
:10019C0013010102678000009307000063880700C9
:1001AC0037050080130585356F30800867800000A7
:1001BC0093010400130500006B0005001305F0FF0C
:1001CC006B00050097510000938101EF370100FF90
:1001DC00732510CC9315A5003301B1409305000095
:1001EC003305B502175200001302F2C03302A2000D
:1001FC00137202FCF32630CC638606001305000054
:10020C006B000500678000001305F0FF678000009D
:10021C001305F0FF678000001305000067800000E5
:10022C0013050000678000001305F0FF67800000D5
:10023C001305F0FF67800000730010001305000029
:10024C006780000013050600678000001305F0FFAF
:10025C0067800000732540F167800000130101FFE7
:10026C0023261100232481009307F0FF6B800700E5
:10027C0013060000130502009745000093854563A3
:10028C0013040200EF20507F13050000130600003A
:10029C00930500003305A400EF30C00FF32730CCDA
:1002AC0093B717006B8007008320C10003248100E3
:1002BC001301010167800000130101FF2324810059
:1002CC0023202101174400001304845E1749000009
:1002DC001309095E3309894023261100232291005A
:1002EC0013592940630E090093040000832704006E
:1002FC009384140013044400E7800700E31899FE6C
:10030C00174400001304C45A174900001309895AF2
:10031C003309894013592940630E090093040000E6
:10032C00832704009384140013044400E78007001F
:10033C00E31899FE8320C10003248100832441002B
:10034C00032901001301010167800000130101FF63
:10035C0023248100974700009387C755174400005A
:10036C0013044455B38787402322910023261100A0
:10037C0093D42740638004029387C7FF338487009C
:10038C00832704009384F4FF1304C4FFE780070061
:10039C00E39804FE8320C1000324810083244100E0
:1003AC001301010167800000130101FF23261100D6
:1003BC00232481002322910023202101F32750CCF8
:1003CC00732730CCF32600CCF32500FC13962700C2
:1003DC009757000093874796B387C70083A40700FD
:1003EC0003A4040103A6C400332987009307040067
:1003FC003309C9003304E6026354F700930707007E
:10040C003304F40003A784003304B402B307D90205
:10041C003304E4003304F40033098900635E2401DF
:10042C0083A7040083A544001305040013041400DF
:10043C00E7800700E31689FE03A744019307000039
:10044C006BC0E7008320C10003248100832441009A
:10045C00032901001301010167800000F32750CC30
:10046C00732520CC13972700975700009387C78CD0
:10047C00B387E70083A7070003A7870003A3070040
:10048C0083A547003305E50067000300130101FF56
:10049C00232611009307F0FF6B800700EFF0DFF0CD
:1004AC00F32730CC93B717006B8007008320C10073
:1004BC001301010167800000130101FE232E1100BE
:1004CC00232C8100232A910023282101232631018A
:1004DC0023244101F32750CC732730CCF32600CCD6
:1004EC00732500FC13962700975700009387C78449
:1004FC00B387C70003A40700832444010326040127
:10050C00332A970093870400330ACA00B304E60227
:10051C006354F70093070700B384F40083250400A9
:10052C000327C40003A9050083A94500B384A402D2
:10053C00B307DA02B384E400B384F400330A9A00FC
:10054C00B309390363C044076F0000080347E40193
:10055C008346D40133D7E440B3073703B387F44061
:10056C00638006068346F401B3D6D740B3882603CE
:10057C0003AE450103A3050103A6C50003284400EF
:10058C0003258400938414003307C701B3866600E7
:10059C00B38717413386C700E700080063069A0249
:1005AC00832504008347C401E39207FA33C734035D
:1005BC008346D401B3073703B387F440E39406FAB8
:1005CC00B3C627036FF09FFA03278401930700003B
:1005DC006BC0E7008320C101032481018324410106
:1005EC00032901018329C100032A8100130101029F
:1005FC0067800000732750CCF32720CC931627007C
:10060C0017470000130747733307D700032507006C
:10061C00832505008326C5000347C50183A8050073
:10062C0003A64500B387D7003386C80263080704C6
:10063C000347E5018346D50133D7E7403306C702AC
:10064C00B387C740638606048346F50133D8D74089
:10065C0083A6050103AE450103A6C500B306D80069
:10066C003308180303234500032585003307C7010E
:10067C00B38707413386C7006700030033C7C7023F
:10068C008346D5013306C702B387C740E39E06FAFB
:10069C0033C817036FF0DFFB130101FF2326110092
:1006AC009307F0FF6B800700EFF01FE1F32730CCCE
:1006BC0093B717006B8007008320C1001301010161
:1006CC0067800000130101FD2326110223248102FF
:1006DC002322910223202103F32620FCF32810FC73
:1006EC00F32400FCF32750CC1307F0016348F70800
:1006FC0033881403130710006354A8003347050311
:10070C0063CAE60863DCE7069386F6FF3343E5022B
:10071C00130803006396F6003365E50233086500A1
:10072C003349980233649802634C1907130510007F
:10073C00B34619036386060013850600B3661903D6
:10074C00174700001307475F2324B1002326C1007D
:10075C00232AA100232CD100232E01003303F30202
:10076C0093972700B307F7001307810023A0E70036
:10077C0023286100634C2003631604068320C10206
:10078C000324810283244102032901021301010382
:10079C006780000013870600E3C8E7F66FF01FFEC2
:1007AC0093060000130510006FF09FF993070900E2
:1007BC0063D4280193870800232EF100170700004B
:1007CC00130707CD6B90E7009307F0FF6B800700D2
:1007DC00EFF09FBDF32730CC93B717006B80070069
:1007EC00E30E04F8B30499021309100033188900BE
:1007FC001308F8FF232891006B000800EFF01FC6C8
:10080C006B0009008320C10203248102832441026E
:10081C00032901021301010367800000130101FD8C
:10082C002326110223248102232291022320210357
:10083C00F32820FC732310FCF32400FCF32750CC8A
:10084C001307F0016346F70E032E050083264500BF
:10085C0003288500B30E930213071000B306DE02C3
:10086C003388060363D40E013347D80363CEE80CF8
:10087C0063D0E70C9388F8FF334FE80213040F00A2
:10088C006396F8003367E8023304E70133499402B6
:10089C00336494026340690C93021000B34F6902F5
:1008AC0063860F0093820F00B36F6902D3F706D0F3
:1008BC009308FEFF938EF6FF538807E0D3770ED094
:1008CC00B3F6DE0033FEC801538707E013587841B6
:1008DC0097480000938848461357774193B6160003
:1008EC00133E1E00130818F8130717F82320A10055
:1008FC002322B1002324C10023285100232AF10113
:10090C00232C0100230ED100A30EC101230F0101E2
:10091C00A30FE100330FFF0293972700B387F80072
:10092C0023A027002326E101634C20036316040651
:10093C008320C10203248102832441020329010282
:10094C00130101036780000013870800E3C4E7F27A
:10095C006FF01FFE930F0000930210006FF01FF555
:10096C00930709006354230193070300232CF10020
:10097C0017070000130787D26B90E7009307F0FF6F
:10098C006B800700EFF05FB3F32730CC93B7170001
:10099C006B800700E30E04F8B304990213091000EE
:1009AC00331489001304F4FF232691006B00040018
:1009BC00EFF05FC46B0009008320C10203248102A5
:1009CC008324410203290102130101036780000003
:1009DC00130181FE232A1100232841012326310112
:1009EC00232421012322910023208100130A0500D6
:1009FC0093890500732900FCF32400CC1304000038
:100A0C00B302944013B312006B20030063960200F0
:100A1C0013850900E7000A006B3000001304140072
:100A2C00E34024FF83204101032A01018329C100F3
:100A3C000329810083244100032401001301810157
:100A4C00678000001305F0FF678000001305F0FFBE
:100A5C00678000001305F0FF678000001305F0FFAE
:100A6C00678000001305F0FF678000001305F0FF9E
:100A7C006780000013050000678000001305F0FF7D
:100A8C00678000001305F0FF678000001305F0FF7E
:100A9C00678000001305F0FF678000001305F0FF6E
:100AAC0067800000130101FE232E1100232C81000E
:100ABC00232A9100232821012326310123244101DB
:100ACC00F3292000B70810009388F8FFB3F7B8009B
:100ADC0013D4450193D4F501B3F5D80093D846014E
:100AEC001357D5011374F47F9397370093F8F87F5D
:100AFC00B367F70013DEF6011357D6019395350053
:100B0C00B3061441131535003367B70013163600BE
:100B1C00138806006394C4436356D014639E080480
:100B2C00B366C700639806001307F07F6314E836BA
:100B3C006F00C0029306F8FF639E06003306A60002
:100B4C00B387E700B336A6003387D700130810002D
:100B5C006F00000A9305F07F6318B80433E7A70011
:100B6C00E302070E13979700130400006340072855
:100B7C00930800016F0080279305F07F6312B40285
:100B8C0033E7A700E306070C139797001308F07FD1
:100B9C0013040000E35E07FC930800006F000025BF
:100BAC00B70580003367B7009305800363C6D50A89
:100BBC009305F00163C8D506130800023308D8402A
:100BCC00B358D600B315070133160601B3E515016A
:100BDC003336C00033E6C500B356D7003306A60043
:100BEC00B386F600B337A6003387F600130804006B
:100BFC009317870063D60708130818009307F07F34
:100C0C006306F830B70780FF9387F7FF135516007C
:100C1C00B377F700137616003366C5001395F7010A
:100C2C006F00C026938506FE93080002B355B700EB
:100C3C00130800006388160113080004B306D8409B
:100C4C003318D7003366C8003336C00033E6C5000E
:100C5C00930600006FF09FF83366C7003336C00070
:100C6C006FF01FFF638C06123388884063140406F0
:100C7C00B3E6A700639E06009307F07F630EF802AD
:100C8C009307070013050600630808506F008020C7
:100C9C009305F8FF639E0500B305C50033B6C50088
:100CAC00B387E7003387C700138605006FF01FEA90
:100CBC009306F07F631CD8043365C7006300057A84
:100CCC009317970063C0077A930707001305060074
:100CDC006FF01FEA9306F07F6394D8023365C70068
:100CEC00630805729317970063CC0772930707008C
:100CFC00130506001308F07F130400006FF05FE784
:100D0C00B7068000B3E7D70093050800930680036D
:100D1C0063C0B6089306F00163C2B6041308000260
:100D2C003308B840B39607013353B50033150501AA
:100D3C00B3E666003335A00033E5A600B3D7B700A1
:100D4C00B306C500B387E70033B7C6003387E700A7
:100D5C0013860600138808006FF09FE9938605FE42
:100D6C0013030002B3D6D700130800006388650094
:100D7C0013080004B305B8403398B7003365A800D6
:100D8C003335A00033E5A600930700006FF05FFB3E
:100D9C0033E5A7003335A0006FF01FFF13081400D4
:100DAC009376E87F6394060CB3E5A700631E0404F6
:100DBC0063820560B366C7006380063E3306C500D8
:100DCC00B387E7003335A600B387A70013978700D6
:100DDC006354075E370780FF1307F7FFB3F7E7008D
:100DEC001305060093080000130810001377750014
:100DFC006312070E6306047413F71800630207747A
:100E0C0093E828006F00C0739306F07F6316D40438
:100E1C006382057EB7064000B3F6D70093B6160082
:100E2C00939646006390887093880600B366C7005B
:100E3C00638806009316970063C4060093080001AC
:100E4C006394056E93070700130506001304000056
:100E5C001308F07F6FF09FF96396D8009308000099
:100E6C006FF0DFFC930800006FF09FFD9306F07F9E
:100E7C006306D8023306C5003335A600B387E700F6
:100E8C00B387A7001395F701135616003365C500F9
:100E9C0093D71700130400006FF01FD0638809006C
:100EAC00930730006398F900639C04001308F07FEB
:100EBC006F00C006930720006394F900E39804FECA
:100ECC00130400009307F0FF1305F0FF1308E07FF5
:100EDC00930850001307200093E818006382E96020
:100EEC00130730006388E95E639E095E1377F50093
:100EFC00930640006308D75E130745003335A700FF
:100F0C00B387A700130507006F00C05D6388090055
:100F1C0093073000639CF900639C04509307000016
:100F2C0013050000930850006F00806193072000A8
:100F3C006390F950E39404FE6FF09FF8635AD00E5F
:100F4C00639E0808B366C700E38006BE9306F8FFED
:100F5C00639E06003306C540B387E740B336C50031
:100F6C003387D740130810006F0040059305F07FBE
:100F7C00E306B8BE9305800363C6D50A9305F0015A
:100F8C0063C8D506130800023308D840B358D600FE
:100F9C00B315070133160601B3E515013336C0004E
:100FAC0033E6C500B356D7003306C540B386D740E9
:100FBC00B337C5003387F640130804009317870036
:100FCC00E3D007CC370980001309F9FF33792701E7
:100FDC00130A0600130408006F0000309305F07F1D
:100FEC00E300B4BAB70580003367B7006FF09FF821
:100FFC00938506FE93080002B355B7001308000052
:10100C006388160113080004B306D8403318D700C0
:10101C003366C8003336C00033E6C50093060000C3
:10102C006FF09FF83366C7003336C0006FF01FFFB8
:10103C00638C06123388884063120406B3E6A7005B
:10104C00639806009307F07F93040E006FF01FC3A4
:10105C001303F8FF63100302B305A6403336B60042
:10106C00B307F7403387C74093040E00138605007F
:10107C006FF05FEF9306F07F631ED8043365C700F3
:10108C006308053E9317970063CA073E9307070052
:10109C001305060093040E006FF09FAD9306F07FCE
:1010AC006394D8023365C7006302053E931797001B
:1010BC0063C4073E93070700130506001308F07F6F
:1010CC0093040E006FF05FC3B7068000B3E7D70040
:1010DC00130308009306800363C266089306F001AD
:1010EC0063C4660493060002B3866640B395D700CA
:1010FC00335865003315D500B3E505013335A00031
:10110C0033E5A500B3D76700B305A640B307F74096
:10111C003337B6003387E740138605001388080081
:10112C0093040E006FF09FE9930503FE1308000271
:10113C00B3D5B700930600006308030193060004BF
:10114C0033836640B396670033E5A6003335A000C1
:10115C0033E5A500930700006FF01FFB33E5A700F4
:10116C003335A0006FF01FFF9306140093F6E67F53
:10117C00639E061233E8A700B365C7006318040C1E
:10118C0063100808639E05229384E9FF93B414004E
:10119C0093070000130500003367F5006304073262
:1011AC001357F501139417003304E40013171500BB
:1011BC009376770093080000638A0602930620005A
:1011CC00638AD922930630006388D92093081000D3
:1011DC00639E09009376F700130640006388C600EF
:1011EC001337C7FF134717003304E400135484016B
:1011FC001344140013741400130800006FF01FBF85
:10120C00E38C05F8B305C5403338B500B386E74029
:10121C00B386064113988600635E08003305A6402A
:10122C00B307F7403336A600B387C74093040E00CC
:10123C006FF09FF633E5D500631A05189384E9FF28
:10124C0093B41400930700006FF01FF59306F07F22
:10125C006312D40263040838B7064000B3F6D70013
:10126C0093B61600939646006390883893880600D0
:10127C006F00C0006398D8029308000063880500D3
:10128C009316970063C40600930800016310083698
:10129C00638E0520930707001305060093040E00C8
:1012AC006FF0DFBA930800006FF05FFE330AC540A1
:1012BC00B33645013389E7403309D9409316890089
:1012CC0063D20608330AA640B307F740333746010A
:1012DC003389E74093040E00630C090613050900DB
:1012EC00EF105070130885FF9307F00163CA0707CE
:1012FC0093070002B387074133170901B357FA006C
:10130C00B3E7E70033160A01634C880833088840BA
:10131C00930518001307F001634CB7049306000201
:10132C00B386B6403395D7003357B6003316D60084
:10133C003365E5003336C0003365C500B3D7B7005D
:10134C006FF09FE533652A01E31805F86FF01FEF86
:10135C0013050A00EF101069130505026FF09FF8D2
:10136C00930785FDB317FA00130600006FF0DFF941
:10137C00130818FE9306000233D807011307000068
:10138C006388D500130700043307B7403397E70091
:10139C003367E6003335E0003365A8006FF09FEA51
:1013AC00370780FF1305F7FF3308044133F7A70015
:1013BC006FF01F8D93070700130506006FF0DFDD3C
:1013CC0093070700130506006FF05FE6938706008E
:1013DC00138505006FF05FDC93880400E39804E04C
:1013EC00133787FF134717003304E40093081000EA
:1013FC006FF0DFDF93081000E38A04DE133787FFFA
:10140C00134717003304E400938804006FF01FDEC9
:10141C00930700001308F07F930800006F00401240
:10142C0093070700130506001308F07F6FF09FA6C3
:10143C009307F0FF1305F0FF1308E07F130400007F
:10144C006FF01FA993070000130500006F00400FF9
:10145C0093070000130500006FF0DFFB93070000FB
:10146C006FF09FFB93070700130506006FF0CFF298
:10147C009307000093040E006FF01FFA9307070008
:10148C001305060093040E006FF00FF19307000094
:10149C001308F07F6FF01FFE93070700130506007B
:1014AC001308F07F93040E006FF0DF9E130500000D
:1014BC0093040000B70740001308F07F9308000165
:1014CC006F000008930700001305000013080000CC
:1014DC006FF09FF463980400130785006FF01FA250
:1014EC00E39C04FEE31E04906F00800513050000CE
:1014FC006384090293073000639AF900638E040039
:10150C001305F0FF1308E07F6F0000019307200024
:10151C00E398F9FEE38604FE93E858009307050070
:10152C006F000004938806003367C700E30007923E
:10153C0093040000B7074000130500001308F07F68
:10154C0013978700635E0700130818001307F07FDA
:10155C00E30EE8F8370780FF1307F7FFB3F7E70050
:10156C001397D701135535003365A7001307F07F88
:10157C0093D73700631EE8003365F500930700002E
:10158C0063080500B707080013050000930400006A
:10159C003707F07F131848019397C7003378E8009A
:1015AC0093D7C700B367F8009394F40133E797001F
:1015BC00930507006384080073A018008320C10101
:1015CC000324810183244101032901018329C100E2
:1015DC00032A81001301010267800000E38E88C892
:1015EC00930800006FF0DFCA93880600E38005863D
:1015FC006FF01FF4E3848886930800006FF09F84DB
:10160C00130101FD23248102232A5101232481018A
:10161C00232611022322910223202103232E3101A0
:10162C00232C4101232861012326710123229101DE
:10163C0013040500130C0600938A0600732920007E
:10164C0093D74501939BC5001397570193DBCB00B0
:10165C0013DAF501630C070213FBF77F9307F07F96
:10166C006308FB081357D501939B3B00B36B7701C1
:10167C00B7078000B3EBFB0093193500130B1BC0AD
:10168C00930C0000930400006F008008B3E7AB00DC
:10169C00638E070E63800B0413850B00EF109034E0
:1016AC00130755FF9307C00163CCE7029306D001E3
:1016BC00930985FFB386E640B39B3B01B356D40038
:1016CC00B3EB7601B31934019305D0C0338BA5402D
:1016DC006FF01FFBEF101031130505026FF05FFC6C
:1016EC00930B85FDB31B7401930900006FF0DFFDB4
:1016FC0033E4AB006306040A9397CB00930905000F
:10170C00130BF07F930C300093040001E3CC07F62D
:10171C0013D74A011395CA009316570193070C006F
:10172C001354C5009375F77F93DAFA0163840608A6
:10173C001307F07F6386E50E9357DC011315340015
:10174C0033E5A700370480003364850093173C0011
:10175C00138515C01307000093962C00B3E6E60022
:10176C00B305AB409386F6FF1305E00033465A01F0
:10177C006360D51037350080939626001305C5633A
:10178C00B386A60083A6060067800600930B0000B4
:10179C0093090000130B0000930C10006FF09FEEE8
:1017AC00930B000093090000130BF07F930C2000A7
:1017BC006FF05FEDB3678401638407086302040470
:1017CC0013050400EF10102293050500938655FFB6
:1017DC009307C00163CED7021307D001938785FF0F
:1017EC003307D7403315F4003357EC003364A700AC
:1017FC00B317FC001307D0C03305B7406FF09FF54B
:10180C0013050C00EF10101E930505026FF01FFC62
:10181C00138585FD3314AC00930700006FF09FFD1A
:10182C0033668401630806021317C4001305F07FA6
:10183C00634C070213073000930400016FF0DFF1D3
:10184C001304000093070000130500001307100099
:10185C006FF09FF013040000930700001305F07F56
:10186C00130720006FF05FEF130730006FF0DFEE0F
:10187C006366740163968B2E63E4F92E1395FB015A
:10188C0013D719009396F90193DB1B00B369E5009C
:10189C001315840013D887013368A800135505016C
:1018AC0033D3AB02131E0801135E0E01939887000D
:1018BC0093D70901B3FBAB02930F030033076E02FE
:1018CC00939B0B01B3E7770163FEE700B387070136
:1018DC00930FF3FF63E8070163F6E700930FE3FF51
:1018EC00B3870701B387E740B3DEA70293990901D9
:1018FC0093D90901B3F7A70213830E003307DE0354
:10190C0093970701B3E7F90063FEE700B38707017C
:10191C001383FEFF63E8070163F6E7001383EEFF12
:10192C00B38707013387E740939F0F01B707010087
:10193C00B3EF6F001383F7FF33FF6F0093D20F01E8
:10194C0093DE080133F3680033046F02B38962023B
:10195C00338FEE03B3033F01135F0401330F7F009A
:10196C00B382D20363743F01B382F200B703010068
:10197C0093570F019383F3FFB3825700B3777F0024
:10198C009397070133747400B3878700636857001B
:10199C0013840F006314570463F2F604B386160124
:1019AC0033BF1601330F0F013307E7011384FFFF19
:1019BC006366E8006314E80263E21603636657008B
:1019CC00639EE20063FCF600B386160133BF16017A
:1019DC00330F0F011384EFFF3307E701338FF6400A
:1019EC0033075740B3B6E6013307D7409307F0FFF0
:1019FC006304E812B352A70293570F013377A7027F
:101A0C0093860200B30F5E021317070133E7E7005A
:101A1C00637EF701330707019386F2FF63680701C2
:101A2C006376F7019386E2FF330707013307F7412B
:101A3C00B35FA70293170F0193D707013377A70260
:101A4C00330EFE031317070133E7E70093870F00EC
:101A5C00637EC701330707019387FFFF63680701A4
:101A6C006376C7019387EFFF33070701939606014F
:101A7C00B3E6F6009397060193D707013307C741E6
:101A8C0013DE0601330FF30233036E02338ECE03E3
:101A9C00B38EFE0293570F01B38E6E00B387D7013E
:101AAC0063F6670037050100330EAE0013D3070150
:101ABC003303C301370E0100130EFEFF33F5C701CC
:101ACC0013150501337FCF013305E501636867000A
:101ADC006314673E93870600630005043307E80030
:101AEC009387F6FF63640703636667006314673CC0
:101AFC0063F0A8029387E6FF93961800B3B816011B
:101B0C0033880801330707019388060063146700C4
:101B1C006384A80093E717001388F53F635A0019F4
:101B2C0013F77700630A070A1307200093E41400E5
:101B3C006302E90A130730006308E908631E090809
:101B4C0013F7F700930640006308D7081387470084
:101B5C00B337F7003304F400930707006F00C00796
:101B6C009385F5FF930600006FF09FD213060A00D1
:101B7C0013840B009387090013870C009306300025
:101B8C006300D732930610006306D730930620000B
:101B9C00E314D7F86F00000113860A006FF01FFEE4
:101BAC0093E4840013050000930700001307F07FF3
:101BBC006F00C005370408009307000013060000EF
:101BCC00130730006FF09FFB631806001387870024
:101BDC006FF01FF8E31C06FE13177400635A07001E
:101BEC00370700FF1307F7FF3374E4001388054031
:101BFC001307E07F634E070713D737009317D40101
:101C0C00B3E7E70013553400130708001317470117
:101C1C00B706F07F1315C5003377D7001355C500F1
:101C2C003365A7001316F6013367C500930507004B
:101C3C00138507006384040073A014008320C10281
:101C4C000324810283244102032901028329C10157
:101C5C00032A8101832A4101032B0101832BC1003B
:101C6C00032C8100832C41001301010367800000C9
:101C7C0093072000630AF90293073000630AF90006
:101C8C00631A0900930700001307F07F6F0000012F
:101C9C00E30A06FE9307F0FF1307E07F93E454007A
:101CAC00138507006FF09FF6E31E06FC6FF09FFE96
:101CBC00130710006316080693F677001307040049
:101CCC00638A06041307200093E414006300E904FC
:101CDC00130730006304E90213070400631C0902B4
:101CEC0093F6F700130540006386A60213B7C7FFEF
:101CFC0013471700330787006F00C0011307040058
:101D0C00631A060013B787FF6FF09FFE13070400DA
:101D1C00E31A06FE135787011347170013771700B2
:101D2C0013051000330505419306800363CCA60E02
:101D3C009306F00163C2A6069385E54133D8A7004C
:101D4C00B316B400B397B700B3E60601B337F0008F
:101D5C00B3E7F6003355A40093F6770063800608CA
:101D6C009306200093E414006308D9069306300010
:101D7C00630ED9046314090693F6F700930540002B
:101D8C00638EB60493864700B3B7F6003305F500AF
:101D9C00938706006F008004930610FEB3860641FD
:101DAC0093080002B356D400130800006306150113
:101DBC009385E5433318B400B367F800B337F000EC
:101DCC00B3E7F600130500006FF01FF96318060067
:101DDC00938687006FF05FFBE31C06FE931685006D
:101DEC0063DE060093E41400130500009307000063
:101DFC0063160702130710006FF05FE193D63700EC
:101E0C009317D501B3E7D70013553500E30007E06E
:101E1C0013F71400E30C07DE1307000093E424000F
:101E2C006FF0DFDEB3E787006384070293072000BF
:101E3C0093E41400630EF902930730006302F90275
:101E4C0093071000631409009307500093D73700D1
:101E5C0093E4240013050000130700006FF01FDB50
:101E6C0093079000E30406FE930710006FF01FFE2B
:101E7C0093079000E31C06FC6FF01FFF370508006A
:101E8C00930700001307F07F130600009304000172
:101E9C006FF0DFD713050000930700006FF0DFFB36
:101EAC0037050800930700001307F07F13060000A6
:101EBC006FF0DFD593860700938706006FF09FC500
:101ECC00130101FD232481022328610123229101A6
:101EDC00232611022322910223202103232E3101D8
:101EEC00232C4101232A5101232671012324810132
:101EFC0013040500930C0600138B060073292000B5
:101F0C0093D745019399C5001397570193D9C900ED
:101F1C0093DAF501630C070293FBF77F9307F07FCD
:101F2C006388FB089357D50193993900B3E93701BE
:101F3C00B7078000B3E9F900131A3500938B1BC067
:101F4C00130C0000930400006F008008B3E7A90095
:101F5C00638007106380090413850900EF10802843
:101F6C00130755FF9307C00163CCE7029307D00119
:101F7C00130A85FFB387E740B3994901B357F400BF
:101F8C00B3E93701331A4401930BD0C0B38BAB4088
:101F9C006FF01FFBEF100025130505026FF05FFCBF
:101FAC00930985FDB3193401130A00006FF0DFFDAE
:101FBC0033E4A9006308040A9397C900130A0500C7
:101FCC00930BF07F130C300093040001E3CC07F665
:101FDC0013574B011314CB009316570193870C0026
:101FEC001354C4001375F77F135BFB01638606085B
:101FFC001307F07F6306E50E93D7DC01131434004E
:10200C0033E48700B70780003364F400130515C070
:10201C0093973C001307000093162C00B3E6E600E0
:10202C00B38BAB009386F6FF1306E000B3C56A01D1
:10203C0013851B00636AD6163736008093962600EC
:10204C0013068667B386C60083A606006780060063
:10205C0093090000130A0000930B0000130C1000EE
:10206C006FF05FEE93090000130A0000930BF07FF2
:10207C00130C20006FF01FEDB36794016382070807
:10208C006300040413050400EF10C015930655FFFC
:10209C009307C00163CED7021307D001930785FFC6
:1020AC003307D7403314F40033D7EC003364870084
:1020BC00B397FC001307D0C03305A7406FF09FF512
:1020CC0013850C00EF100012130505026FF01FFCB6
:1020DC00130485FD33948C00930700006FF09FFD73
:1020EC0033669401630806021317C4001305F07FCE
:1020FC00634C070213073000930400016FF0DFF10B
:10210C0013040000930700001305000013071000D0
:10211C006FF09FF013040000930700001305F07F8D
:10212C00130720006FF05FEF130730006FF0DFEE46
:10213C0037040800930700001307F07F9305000095
:10214C009304000113174701B706F07F1314C40062
:10215C003377D7001354C4009395F501336487008B
:10216C003367B400138507009305070063840400EC
:10217C0073A014008320C102032481028324410232
:10218C00032901028329C101032A8101832A410108
:10219C00032B0101832BC100032C8100832C4100F4
:1021AC001301010367800000370601001307F6FFD7
:1021BC0093560A0113DE0701337AEA00B3F7E700FE
:1021CC0033034E03B38E4703338FF6023308E30118
:1021DC0013D30E0133030301B388C6036374E30105
:1021EC00B388C8003378E300B3FEEE001356030146
:1021FC0013180801135304013374E4003308D80195
:10220C00330F8A02B38E8602330A43033307DA0193
:10221C00135A0F01330AEA00B38666026376DA01B9
:10222C0037070100B386E600935E0A01B38EDE0029
:10223C00B70601009382F6FF337A5A00337F5F00B2
:10224C0013D70901131A0A01B3F95900330AEA0129
:10225C00B302EE02B30F4601338F3703330E3E0346
:10226C0013560F01B307F702330EFE003306C601F7
:10227C006374F600B382D200B70601009387F6FFB1
:10228C00135E06013376F600337FFF00131606014A
:10229C00B38789023306E601330E5E0033048702EE
:1022AC00330FE30213D707013303330333038300E4
:1022BC003303670063748300330FDF0037070100BB
:1022CC001307F7FFB376E300B3F7E7009396060125
:1022DC00B388F801B386F60033BA4801B386D60149
:1022EC0033874601B388C80033B6C800B30FC701A3
:1022FC00B382CF00B3B6D6013337470133E7E600DC
:10230C0033B6C2001353030133BECF01330767004A
:10231C003366CE00939798003307C7003307E70165
:10232C00B3E7070113179700B337F00093D8780180
:10233C0013D47201B3E717019392920093167700AE
:10234C0033648700B3E7570063D0060A13D717002E
:10235C0093F71700B367F7001317F401B3E7E7001F
:10236C00135414001308F53F6358001113F777004A
:10237C00630807081307200093E414006300E908BE
:10238C00130730006306E906631C090613F7F70010
:10239C00930640006306D70613874700B337F70050
:1023AC003304F400930707006F00800593850A003F
:1023BC001384090093070A0013070C0093062000EE
:1023CC006302D728930630006306D72893061000C3
:1023DC00E31AD7F813040000930700006F004024A1
:1023EC0093050B006FF09FFD13850B006FF09FF7AB
:1023FC0063980500138787006FF05FFAE39C05FE76
:10240C0013177400635A0700370700FF1307F7FF11
:10241C003374E400130805401307E07F634E070193
:10242C0013D737009317D401B3E7E70013543400E4
:10243C00130708006FF01FD193072000630AF902FD
:10244C0093073000630AF900631A09009307000030
:10245C001307F07F6F000001E38A05FE9307F0FF7E
:10246C001307E07F93E45400138407006FF09FCDB3
:10247C00E39E05FC6FF09FFE130710006316080621
:10248C0093F6770013070400638A060413072000F1
:10249C0093E414006300E904130730006304E902B9
:1024AC0013070400631C090293F6F700130640009F
:1024BC006386C60213B7C7FF13471700330787009D
:1024CC006F00C00113070400639A050013B787FF60
:1024DC006FF09FFE13070400E39A05FE1357870164
:1024EC00134717001377170093061000B3860641A5
:1024FC0013068003634CD60E1306F0016342D60616
:10250C001305E5413316A40033D8D700B397A700C1
:10251C0033660601B337F000B367F6003354D400CA
:10252C0093F67700638006089306200093E414006A
:10253C006308D90693063000630ED90463140906A8
:10254C0093F6F70013064000638EC604938647008B
:10255C00B3B7F6003304F400938706006F008004D1
:10256C00130610FE33060641930800023356C400CE
:10257C0013080000638616011305E5433318A40005
:10258C00B367F800B337F000B367F600130400002C
:10259C006FF01FF963980500938687006FF05FFB5F
:1025AC00E39C05FE9316840063DE060093E414009E
:1025BC0013040000930700006316070213071000B2
:1025CC006FF05FB893D637009317D401B3E7D700F9
:1025DC0013543400E30807B613F71400E30407B6EA
:1025EC001307000093E424006FF0DFB5B3E7870016
:1025FC00638407029307200093E41400630EF9022E
:10260C00930730006302F90293071000631409006A
:10261C009307500093D7370093E424001304000071
:10262C00130700006FF01FB293079000E38405FEC0
:10263C00930710006FF01FFE93079000E39C05FCBE
:10264C006FF01FFF13040000930700001307F07FC7
:10265C006FF05FAF37040800930700001307F07F9B
:10266C00930500006FF01FAE130101FE232E110025
:10267C00232C8100232A91002328210123263101B8
:10268C0023244101F3292000B70810009388F8FF98
:10269C00B3F7B8001357D50113D4450193D4F50102
:1026AC0093973700B3F5D8009395350093D846012E
:1026BC00B367F7001357D6013367B70093F8F87F69
:1026CC009305F07F1374F47F1315350093D6F60140
:1026DC00131636006396B800B365C7006394050003
:1026EC0093C6160033081441639E964E635400172C
:1026FC00639A0806B366C700639606021307F07F59
:10270C0013040000631EE82C33E7A700E300071E48
:10271C003704400033F487001334140013144400BE
:10272C006F00002C9306F8FF639E06003306A6008C
:10273C00B387E700B336A6003387D7001308100021
:10274C006F00000A9305F07F6318B80433E7A70005
:10275C00E31007FC930700001305000013040000AE
:10276C006F0040319306F07F6312D40233E7A70069
:10277C00E3040718139797001308F07F93080000E1
:10278C00634E073A130400016F008025B7068000E2
:10279C003367D700930608009305800363C6D50AF8
:1027AC009305F00163C8D506130800023308D8401E
:1027BC00B358D600B315070133160601B3E515015E
:1027CC003336C00033E6C500B356D7003306A60037
:1027DC00B386F600B337A6003387F600130804005F
:1027EC009317870063D60708130818009307F07F28
:1027FC006302F83CB70780FF9387F7FF1355160069
:10280C00B377F700137616003366C5001395F701FE
:10281C006F000032938506FE93080002B355B70093
:10282C00130800006388160113080004B306D8408F
:10283C003318D7003366C8003336C00033E6C50002
:10284C00930600006FF09FF83366C7003336C00064
:10285C006FF01FFF630E081233888840631604065E
:10286C00B3E6A700639E06009307F07F630EF802A1
:10287C0093070700130506006304085C6F00C02B68
:10288C009305F8FF639E0500B306C50033B6C6007A
:10289C00B387E7003387C700138606006FF01FEA83
:1028AC009306F07F631ED8043365C70093070000BE
:1028BC006302051C93179700E3C6070493070700F0
:1028CC00130506006F0080029306F07F6394D80214
:1028DC003365C7006304057E9317970063C6077EB4
:1028EC0093070700130506001308F07F93080000F8
:1028FC006FF05FE9B7068000B3E7D70093050800D7
:10290C009306800363C0B6089306F00163C2B60455
:10291C00130800023308B840B39607013353B500CF
:10292C0033150501B3E666003335A00033E5A60088
:10293C00B3D7B700B306C500B387E70033B7C600FB
:10294C003387E70013860600138808006FF05FE9F1
:10295C00938605FE13030002B3D6D70013080000BC
:10296C006388650013080004B305B8403398B700BA
:10297C003365A8003335A00033E5A60093070000AB
:10298C006FF05FFB33E5A7003335A0006FF01FFF3E
:10299C00130814009376E87F639C0616B3E6A70031
:1029AC00631E0404638E066AB366C700638A064816
:1029BC003306C500B387E7003335A600B387A700FD
:1029CC00139787006350076A370780FF1307F7FFD9
:1029DC00B3F7E70013050600930800001308100076
:1029EC0013777500631C07186386080813771400A7
:1029FC0063020708136424006F00C0079305F07F7F
:102A0C00631AB402638A067C3704400033F48700EF
:102A1C0013341400131444006392B804B365C70054
:102A2C00638E05009315970063CA0500130400011B
:102A3C006F00C00013040000E382B8FE639006022E
:102A4C009307070013050600930800001308F07F96
:102A5C006FF01FF9130400006FF05FFC3367C700C1
:102A6C00E30407FE93040000B707400013050000C1
:102A7C001308F07F13978700635E07001308180094
:102A8C001307F07F6308E870370780FF1307F7FF21
:102A9C00B3F7E7001397D701135535003365A7003B
:102AAC001307F07F93D73700631EE8003365F500FA
:102ABC009307000063080500B70708001305000022
:102ACC00930400003707F07F131848019397C70051
:102ADC003378E80093D7C700B367F8009394F401F8
:102AEC0033E7970093050700630404007320140078
:102AFC008320C101032481018324410103290101A5
:102B0C008329C100032A81001301010267800000A0
:102B1C009306F07F6308D8023306C5003335A60050
:102B2C00B387E700B387A7001395F7011356160078
:102B3C003365C50093D717009308000013040000F9
:102B4C006FF01FEA63880900930730006398F9005F
:102B5C00639C04001308F07F6F00C00693072000ED
:102B6C006394F900E39804FE930800009307F0FFC8
:102B7C001305F0FF1308E07F130450001307200027
:102B8C00136414006382E960130730006388E95E04
:102B9C00639E095E1377F500930640006308D75EC9
:102BAC00130745003335A700B387A70013050700AB
:102BBC006F00C05D6388090093073000639CF900C7
:102BCC00639C04509307000013050000130450008D
:102BDC006FF05FEA930720006390F950E39404FED2
:102BEC006FF09FF8635C000F639E0808B366C70024
:102BFC00E38606B09306F8FF639E06003306C540D5
:102C0C00B387E740B336C5003387D74013081000AD
:102C1C006F0040059305F07FE30AB8B2930580037B
:102C2C0063C8D50A9305F00163CAD50613080002E0
:102C3C003308D840B358D600B31507013316060134
:102C4C00B3E515013336C00033E6C500B356D700E3
:102C5C003306C540B386D740B337C5003387F6403B
:102C6C001308040093178700E3D407C037098000CA
:102C7C001309F9FF33792701130A0600130408001E
:102C8C006F0040309306F07FE302D4AEB7068000AD
:102C9C003367D700930608006FF05FF8938506FE44
:102CAC0093080002B355B70013080000638816019F
:102CBC0013080004B306D8403318D7003366C80095
:102CCC003336C00033E6C500930600006FF05FF8A2
:102CDC003366C7003336C0006FF01FFF630A08125B
:102CEC003388884063120406B3E5A7006398050097
:102CFC009307F07F938406006FF05FB71303F8FF20
:102D0C0063100302B305A6403336B600B307F74091
:102D1C003387C74093840600138605006FF01FEFBE
:102D2C009305F07F631CB8043365C7006304053E4C
:102D3C009317970063C6073E930707001305060019
:102D4C00938406006FF09FBA9305F07F6392B802EC
:102D5C003365C700630E053C9317970063C2073EAB
:102D6C0093070700130506001308F07F6FF05FFD53
:102D7C00B7058000B3E7B700130308009305800381
:102D8C0063C265089305F00163C46504130800026F
:102D9C0033086840B3950701335E650033150501B0
:102DAC00B3E5C5013335A00033E5A500B3D7670003
:102DBC00B305A640B307F7403337B6003387E74077
:102DCC001386050013880800938406006FF09FE9B2
:102DDC00930503FE130E0002B3D5B70013080000D1
:102DEC006308C30113080004330368403398670079
:102DFC003365A8003335A00033E5A5009307000028
:102E0C006FF01FFB33E5A7003335A0006FF01FFFF9
:102E1C009305140093F5E57F6390051433E3A70045
:102E2C00B365C7006318040C631003086390052492
:102E3C009384E9FF93B4140093070000130500007A
:102E4C003367F500630407321357F50193981700A5
:102E5C00B388E8001317150093767700130400006D
:102E6C00638A060293062000638CD92293063000F5
:102E7C00638AD92013041000639E09009376F7002F
:102E8C00130640006388C6001337C7FF13471700AB
:102E9C00B388E80093D8880193C8180093F81800F9
:102EAC00130800006FF0DFB3E38C05F83308C5405E
:102EBC00B3380501B385E740B38515419398850078
:102ECC0063DE08003305A640B307F7403336A6008F
:102EDC00B387C740938406006FF09FF63365B80044
:102EEC00631C05189384E9FF93B414009307000046
:102EFC006FF01FF5130EF07F6318C4036308032CE7
:102F0C003704400033F487001334140013144400C6
:102F1C006390C805638E050013189700634A080078
:102F2C00130400016F00C00013040000E384C8FF09
:102F3C006310030263800522930707001305060044
:102F4C00938406006FF05FB0130400006FF09FFCD9
:102F5C00E38C05AE6FF01FB1330AC540B3354501A4
:102F6C003389E7403309B9409315890063D20508CA
:102F7C00330AA640B307F740333746013389E7409D
:102F8C0093840600630C090613050900EF008025E5
:102F9C00130885FF9307F00163CA07079307000224
:102FAC00B387074133170901B357FA00B3E7E700BA
:102FBC0033160A01634C88083308884093051800BF
:102FCC001307F001634CB70493060002B386B640B6
:102FDC003395D7003357B6003316D6003365E5006A
:102FEC003336C0003365C500B3D7B7006FF05FE56B
:102FFC0033652A01E31805F86FF0DFEE13050A00BC
:10300C00EF00401E130505026FF09FF8930785FD36
:10301C00B317FA00130600006FF0DFF9130818FE5F
:10302C009306000233D80701130700006388D5000C
:10303C00130700043307B7403397E7003367E60004
:10304C003335E0003365A8006FF05FEA370780FF87
:10305C001305F7FF3308044133F7A7006FF05F81C6
:10306C0093070700130506006FF09FDD9307070019
:10307C00130506006FF01FE6938705001305080083
:10308C006FF01FDC13840400E39604E0133787FF12
:10309C0013471700B388E800130410006FF09FDF8C
:1030AC0013041000E38804DE133787FF134717005F
:1030BC00B388E800138404006FF0DFDD9307000091
:1030CC001308F07F6FF08FE99307070013050600D4
:1030DC001308F07F6FF05FA69307F0FF1305F0FF66
:1030EC001308E07F930800006FF01FA993070000FE
:1030FC00130500006FF01F989307000013050000E4
:10310C006FF01FFC930707001305060093080000DF
:10311C006FF01F8D93070000938406006FF09F954E
:10312C009307070013050600938406006FF01FFE3B
:10313C00930700001308F07F938406006FF00FE2F2
:10314C0093070700130506001308F07F938406000D
:10315C006FF09F9E1305000093040000B70740001A
:10316C001308F07F130400016FF0DF909307000049
:10317C0013050000130800006FF04FDE6398040085
:10318C00130785006FF01FA2E39C04FEE3940886EE
:10319C006FF05F8E13050000638409029307300003
:1031AC00639AF900638E04001305F0FF1308E07FA7
:1031BC006F00000193072000E398F9FEE38604FEFC
:1031CC0013645400930705006FF0DF8CE38E88D6F0
:1031DC00130400006FF01FD6E38E888613040000E2
:1031EC006FF01F86B7070100637AF5029307F00FA3
:1031FC00B3B7A700939737003737008093060002C8
:10320C00B386F6403355F5009307476B3385A7001B
:10321C00034505003385A640678000003707000191
:10322C0093070001E36AE5FC930780016FF0DFFC74
:10323C00930505009306000013060000130500001B
:10324C006F000023130101FF93050000232481006C
:10325C002326110013040500EF00402BB757008004
:10326C0003A507CF8327C50363840700E780070006
:10327C0013050400EFC0DFF3B3C7A50093F73700C5
:10328C00B308C500639207069307300063FEC704BA
:10329C0093773500130705006398070613F6C8FFEC
:1032AC00930706FE636CF708637CC70293860500E0
:1032BC009307070003A806009387470093864600F0
:1032CC0023AE07FFE3E8C7FE9307F6FFB387E7409B
:1032DC0093F7C7FF938747003307F700B385F500D3
:1032EC00636817016780000013070500E37C15FF76
:1032FC0083C705001307170093851500A30FF7FE6E
:10330C00E36817FF6780000083C6050013071700EA
:10331C0093773700A30FD7FE93851500E38007F84A
:10332C0083C605001307170093773700A30FD7FE4A
:10333C0093851500E39A07FC6FF05FF683A64500B2
:10334C0083A2050083AF850003AFC50083AE0501E2
:10335C0003AE450103A3850103A8C5012322D700B1
:10336C0083A60502232057002324F7012326E70117
:10337C002328D701232AC701232C6700232E0701FA
:10338C002320D7021307470293854502E368F7FA17
:10339C006FF09FF11303F00013070500637EC30267
:1033AC009377F7006390070A63920508937606FFFC
:1033BC001376F600B386E6002320B7002322B7006D
:1033CC002324B7002326B70013070701E366D7FEB3
:1033DC006314060067800000B306C3409396260072
:1033EC0097020000B38656006780C6002307B7001B
:1033FC00A306B7002306B700A305B7002305B70043
:10340C00A304B7002304B700A303B7002303B7003A
:10341C00A302B7002302B700A301B7002301B70032
:10342C00A300B7002300B7006780000093F5F50FE9
:10343C0093968500B3E5D50093960501B3E5D500C9
:10344C006FF0DFF69396270097020000B3865600C4
:10345C0093820000E78006FA93800200938707FFAF
:10346C003307F7403306F600E378C3F66FF0DFF36B
:10347C00B757008003A707CF83278714638C0704F3
:10348C0003A747001308F001634EE8061318270042
:10349C0063060502338307012324C30883A8871816
:1034AC00130610003316E600B3E8C80023A417195E
:1034BC002324D310930620006304D50213071700AE
:1034CC0023A2E700B387070123A4B700130500006C
:1034DC00678000009307C7142324F7146FF05FFA7A
:1034EC0083A6C7181307170023A2E70033E6C6000C
:1034FC0023A6C718B387070123A4B7001305000040
:10350C00678000001305F0FF67800000130101FDC8
:10351C00B7570080232C410103AA07CF2320210396
:10352C002326110203298A142324810223229102C7
:10353C00232E3101232A51012328610123267101F5
:10354C002324810163000904130B0500938B0500F0
:10355C00930A10009309F0FF832449001384F4FFAD
:10356C006342040293942400B304990063840B0413
:10357C0083A74410638077051304F4FF9384C4FF7E
:10358C00E31634FF8320C102032481028324410209
:10359C00032901028329C101032A8101832A4101E4
:1035AC00032B0101832BC100032C810013010103A8
:1035BC00678000008327490083A644009387F7FFA8
:1035CC00638E870423A20400E38806FA83278918F4
:1035DC0033978A00032C4900B377F70063920702F4
:1035EC00E78006000327490083278A1463148701A8
:1035FC00E304F9F8E38807F8138907006FF0DFF5A7
:10360C008327C91883A544083377F700631C070088
:10361C0013050B00E78006006FF0DFFC2322890006
:10362C006FF09FFA13850500E78006006FF09FFB93
:10363C00AC1B0080A01E0080A41B0080A01E00807C
:10364C00881E0080A01E0080A41B0080B01B008080
:10365C00B01B0080881E0080A41B0080781B00809B
:10366C00781B0080781B0080C01B0080C823008062
:10367C00C8230080EC230080BC230080BC23008086
:10368C003C210080EC230080BC2300803C21008086
:10369C00BC230080EC230080B8230080B82300807A
:1036AC00B82300806026008000010202030303039C
:1036BC0004040404040404040505050505050505B6
:1036CC000505050505050505060606060606060696
:1036DC00060606060606060606060606060606067E
:1036EC000606060606060606070707070707070766
:1036FC00070707070707070707070707070707074E
:10370C00070707070707070707070707070707073D
:10371C00070707070707070707070707070707072D
:10372C000707070707070707080808080808080815
:10373C0008080808080808080808080808080808FD
:10374C0008080808080808080808080808080808ED
:10375C0008080808080808080808080808080808DD
:10376C0008080808080808080808080808080808CD
:10377C0008080808080808080808080808080808BD
:10378C0008080808080808080808080808080808AD
:10379C00080808080808080808080808080808089D
:0837AC000808080808080808D5
:1037B4001000000000000000037A5200017C0101A7
:1037C4001B0D0200100000001800000080D2FFFF53
:1037D4000800000000000000100000002C000000A1
:1037E40074D2FFFF08000000000000001000000079
:1037F4004000000068D2FFFF080000000000000045
:1038040010000000540000005CD2FFFF080000001C
:1038140000000000100000006800000050D2FFFF0C
:103824000800000000000000100000007C00000000
:1038340044D2FFFF08000000000000001000000058
:103844009000000038D2FFFF0800000000000000D4
:1038540010000000A40000002CD2FFFF08000000AC
:103864000000000010000000B800000020D2FFFF9C
:10387400080000000000000010000000CC00000060
:1038840014D2FFFF08000000000000001000000038
:10389400E000000008D2FFFF080000000000000064
:1038A40010000000F4000000FCD1FFFF080000003D
:0438B4000000000010
:0448B800A4010080D7
:1048C000000000000000000000000000B44B008069
:1048D0001C4C0080844C00800000000000000000A0
:1048E00000000000000000000000000000000000C8
:1048F00000000000000000000000000000000000B8
:1049000000000000000000000000000000000000A7
:104910000000000000000000000000000000000097
:104920000000000000000000000000000000000087
:104930000000000000000000000000000000000077
:104940000000000000000000000000000000000067
:104950000000000000000000000000000000000057
:104960000000000000000000000000000000000047
:1049700001000000000000000E33CDAB34126DE6E4
:10498000ECDE05000B00000000000000000000004D
:104990000000000000000000000000000000000017
:1049A0000000000000000000000000000000000007
:1049B00000000000000000000000000000000000F7
:1049C00000000000000000000000000000000000E7
:104CF000C8480080000000007C0F971C67CBB440C0
:0C4D00007233DC801FA3B040C848008064
:040000058000000077
:00000001FF
