:02000004F0000A
:10000000732510FC97050000938505226B10B50041
:10001000EF004021130510006B000500732510FC54
:10002000970500009385452A6B10B500EF008029E5
:10003000130510006B000500174500001305C541AE
:10004000174600001306864C3306A64093050000B1
:10005000EF3000681705000013050536EF30C04B80
:0C006000EF00002CEF00C0036F00400018
:10006C00130101FF930500002324810023261100B6
:10007C0013040500EF30807C174500000325453B39
:10008C008327C50363840700E7800700130504007A
:10009C00EF00C017130101FE974700009387473A02
:1000AC00232821012326310103A9070083A9470036
:1000BC009747000093874738232C8100232A91000F
:1000CC0003A4070083A447001305090013060400CA
:1000DC009386040093850900232E1100EF00D02293
:1000EC001308050093880500974700009387C738CD
:1000FC00130604009386040023A0070123A2170112
:10010C001305090093850900EF20C06F1308050043
:10011C0093880500974700009387873513060900DD
:10012C009386090023A0070123A2170113050400DD
:10013C0093850400EF20006D1308050093880500DB
:10014C0097470000938747321306040093860400F8
:10015C0023A0070123A217011305090093850900A9
:10016C00EF10506E130805009388050097470000A8
:10017C009387072F130604009386040023A007011E
:10018C0023A217011305090093850900EF100062E3
:10019C001308050093880500974700009387C72B29
:1001AC0023A0070123A21701130609009386090057
:1001BC001305040093850400EF10405F974700007F
:1001CC009387072923A0A70023A2B7009307F0FF6A
:1001DC006B8007008320C10103248101832441012A
:1001EC00032901018329C100130500001301010239
:1001FC006780000093070000638807001705000064
:10020C001305C51A6F30803067800000930104001D
:10021C00130500006B0005001305F0FF6B000500D3
:10022C00975100009381C1CD370100FF732510CC8D
:10023C009315A5003301B140930500003305B502B9
:10024C00174200001302B22F3302A200137202FCF9
:10025C00F32630CC63860600130500006B00050006
:10026C00678000001305F0FF678000001305F0FFA6
:10027C006780000013050000678000001305000074
:10028C00678000001305F0FF678000001305F0FF86
:10029C0067800000730010001305000067800000E9
:1002AC0013050600678000001305F0FF678000004F
:1002BC00732540F167800000130101FF2326110014
:1002CC00232481009307F0FF6B80070013060000C6
:1002DC001305020097450000938505D21304020014
:1002EC00EF300024130500001306000093050000F6
:1002FC003305A400EF30003DF32730CC93B7170043
:10030C006B8007008320C1000324810013010101CD
:10031C0067800000130101FF2324810023202101A9
:10032C0097470000938747CD174400001304C4CCB3
:10033C002326110023229100338987406380870292
:10034C00135929409304000083270400938414005C
:10035C0013044400E7800700E3E824FF97470000FC
:10036C009387C7C917440000130404C93389874015
:10037C0013592940638E87009304000083270400DF
:10038C009384140013044400E7800700E3E824FF7F
:10039C008320C10003248100832441000329010030
:1003AC001301010167800000130101FF2324810068
:1003BC0097470000938787C417440000130404C4B4
:1003CC003304F4402322910023261100935424403B
:1003DC00638004021304C4FF3304F4008327040075
:1003EC009384F4FF1304C4FFE7800700E39804FE32
:1003FC008320C100032481008324410013010101E7
:10040C0067800000130101FF2326110023248100C3
:10041C002322910023202101732650CC732730CC4A
:10042C00F32600CCF32500FC974700009387470583
:10043C0013162600B387C70083A4070083A7040103
:10044C0003A6C4003329F7003304E6023309C900BC
:10045C006354F700930707003304F40003A78400E8
:10046C003304B402B307D9023304E4003304F400B8
:10047C0033098900635E240183A7040083A544002B
:10048C001305040013041400E7800700E31689FE2B
:10049C0003A74401930700006BC0E7008320C10051
:1004AC00032481008324410003290100130101016D
:1004BC0067800000732750CC732520CC9747000031
:1004CC00938707FC13172700B387E70083A7070060
:1004DC0083A6870003A7070083A547003305D50033
:1004EC0067000700130101FF232611009307F0FF9B
:1004FC006B800700EFF01FF1F32730CC93B7170098
:10050C006B8007008320C10013010101678000008C
:10051C00130101FE232E1100232C8100232A9100AC
:10052C00232821012326310123244101732650CC99
:10053C00732730CCF32600CC732500FC97470000C2
:10054C00938707F413162600B387C70003A407008C
:10055C008327440103260401332AF700B304E6027F
:10056C00330ACA006354F70093070700B384F400FE
:10057C00832504000327C40003A9050083A94500B3
:10058C00B384A402B307DA02B384E400B384F400A6
:10059C00330A9A00B309390363C044076F0000089B
:1005AC000347E4018346D40133D7E440B307370350
:1005BC00B387F440638006068346F401B3D6D74074
:1005CC00B388260303AE450103A3050103A6C500AA
:1005DC000328440003258400938414003307C701C7
:1005EC00B3866600B38717413386C700E70008005F
:1005FC0063069A02832504008347C401E39207FA39
:10060C0033C734038346D401B3073703B387F440AD
:10061C00E39406FAB3C627036FF09FFA032784010D
:10062C00930700006BC0E7008320C1010324810104
:10063C0083244101032901018329C100032A81007C
:10064C001301010267800000F32650CCF32720CC65
:10065C00174700001307C7E2939626003307D7000D
:10066C0003250700832505000326C5000347C501A4
:10067C0083A8050083A64500B387C700B386D802BC
:10068C00630807040347E5010346D50133D7E74068
:10069C00B306D702B387D740630606040348F501B7
:1006AC0033D8074183A6050103AE450103A6C50057
:1006BC00B306D8003308180303234500032585002F
:1006CC003307C701B38707413386C70067000300B0
:1006DC0033C7D7020346D501B306D702B387D74039
:1006EC00E31E06FA33C817036FF0DFFB130101FF9B
:1006FC00232611009307F0FF6B800700EFF05FE1FA
:10070C00F32730CC93B717006B8007008320C10010
:10071C001301010167800000130101FD2326110262
:10072C00232481022322910223202103F32620FC7F
:10073C00F32810FCF32400FCF32750CC1307F00132
:10074C006348F70833881403130710006354A80098
:10075C003347050363CAE60863DCE7069386F6FFB6
:10076C003343E502130803006396F6003365E50294
:10077C00330865003349980233649802634C1907B7
:10078C0013051000B3461903638606001385060093
:10079C00B366190317470000130787CE2324B10053
:1007AC002326C100232AA100232CD100232E0100D3
:1007BC003303F30293972700B307F7001307810065
:1007CC0023A0E70023286100634C20036316040672
:1007DC008320C102032481028324410203290102E4
:1007EC00130101036780000013870600E3C8E7F6D6
:1007FC006FF01FFE93060000130510006FF09FF9B9
:10080C009307090063D4280193870800232EF10075
:10081C0017070000130747CD6B90E7009307F0FF15
:10082C006B800700EFF01FBEF32730CC93B7170097
:10083C006B800700E30E04F833099902930410004F
:10084C00339884001308F8FF232821016B0008005B
:10085C00EFF05FC66B8004008320C1020324810289
:10086C008324410203290102130101036780000064
:10087C00130101FD83220500032845008326850012
:10088C0023261102232481022322910223202103F7
:10089C00732320FCF32810FC732400FC732750CC2A
:1008AC009307F00163C8E70E330858029307100052
:1008BC00B3860603338E88026354DE00B3C7C603C7
:1008CC006346F30E6358F70C1303F3FF33CFF602B2
:1008DC0093040F006316E300B3E6F602B384E6015B
:1008EC0033C98402B3E484026348190D930E1000DB
:1008FC00334E190363060E00930E0E00336E19036C
:10090C00D37708D0938FF2FF9307F8FFD38607E0D5
:10091C00D3F702D0B3FF5F0093D67641B3F707014C
:10092C0093BF1F00938616F8939F8F0093B7170001
:10093C0093F6F60F93960601B3E7F701B3E7D700EA
:10094C00974600009386C6B32320A1002322B10052
:10095C002324C1002328D101232AC101232C010007
:10096C003303EF02538F07E0131727003387E6009A
:10097C0013587F41130818F813188801B3E70701BF
:10098C00232EF1002320270023266100634C200333
:10099C00639604068320C10203248102832441024E
:1009AC000329010213010103678000009307030070
:1009BC00E34CF7F06FF01FFE130E0000930E1000C7
:1009CC006FF01FF49307090063D428019387080084
:1009DC00232CF10017070000130787D16B90E70059
:1009EC009307F0FF6B800700EFF09FB2F32730CC3A
:1009FC0093B717006B800700E38E04F83309890264
:100A0C0013041000B31494009384F4FF23262101E3
:100A1C006B800400EFF05FC36B0004008320C10205
:100A2C0003248102832441020329010213010103DF
:100A3C0067800000130181FE232A11002328410145
:100A4C00232631012324210123229100232081001C
:100A5C00130A050093890500732900FCF32400CCCC
:100A6C0013040000B302944013B312006B20030074
:100A7C006396020013850900E7000A006B30000042
:100A8C0013041400E34024FF83204101032A0101D5
:100A9C008329C10003298100832441000324010020
:100AAC0013018101678000001305F0FF67800000CF
:100ABC001305F0FF678000001305F0FF678000004E
:100ACC001305F0FF678000001305F0FF678000003E
:100ADC001305F0FF6780000013050000678000001D
:100AEC001305F0FF678000001305F0FF678000001E
:100AFC001305F0FF678000001305F0FF678000000E
:100B0C001305F0FF67800000130101FE232E110076
:100B1C00232C8100232A9100232821012326310133
:100B2C0023244101F3292000B70710009387F7FF16
:100B3C0033F7B70013D44501131737001358D501F9
:100B4C00B3F7D70093D846011374F47F93D4F5010F
:100B5C003368E80093F8F87F1357D6019397370062
:100B6C0093D6F601131535003367F70013163600CC
:100B7C00B3051441639ED44A938605006350B01AA2
:100B8C00639A080AB367C700639007029307F07F64
:100B9C006380F5081307080013060500930700008F
:100BAC00938805006F00C0029387F5FF639E0704CE
:100BBC003306C5003307E8003335A6003307A7001A
:100BCC00B7068000B376D7006390064293081000F6
:100BDC00937676001308070013050600E38C0620B5
:100BEC00930600001307200093E717006396E93A79
:100BFC006388043C130785003336A7003308C8000C
:100C0C00130507006F00D02B9306F07F6394D50C6F
:100C1C00B365A800E38805329357680193C71700A2
:100C2C0093F7170093974700130708001306050066
:100C3C006F0040129307F07F631CF400B365A800AB
:100C4C00E39C05FC130800009308F07F6F00C06460
:100C5C009307800363C4B708B70780003367F700B6
:100C6C00938705009306F00163C0F6089305000214
:100C7C00B385F540B316B700B358F600B315B600FC
:100C8C00B3E61601B335B000B3E6B600B357F700C0
:100C9C003386A600B3870701B336D6003387D70057
:100CAC0093080400B7078000B377F7006382072C22
:100CBC00938818009307F07F639AF83263820936A1
:100CCC00930730006398F934638C04349306000066
:100CDC006F00802B93068003E3D6F6F89307000091
:100CEC00930610006FF0DFFA938607FE930800025C
:100CFC00B356D700930500006388170193050004D1
:100D0C00B385F540B315B700B3E5C500B335B000F6
:100D1C00B3E6B600930700006FF09FF763820510EF
:100D2C00B3868840631E0404B367A8006398070267
:100D3C009307F07F93880600639CF622B365C70087
:100D4C00E38A05209357670193C7170093F71700A1
:100D5C00939747009308F07F6FF09FE79387F6FF18
:100D6C00E38807E49305F07FE38AB6FC93068003DF
:100D7C0063DEF60293070000930610006F00C005B7
:100D8C009307F07F639AF800B365C700639C051264
:100D9C00130800006F00405093078003E3CCD7FC8E
:100DAC00B70780003368F800938706009306F001BC
:100DBC0063CEF60293050002B385F540B316B80076
:100DCC003353F500B315B500B3E66600B335B00088
:100DDC00B3E6B600B357F8003386C600B387E70016
:100DEC00B336D6003387D7006FF0DFEB938607FE60
:100DFC0013030002B356D800930500006388670004
:100E0C0093050004B385F540B315B800B3E5A50010
:100E1C00B335B000B3E6B600930700006FF0DFFB0C
:100E2C009305140093F7E57F639E0710B365A80044
:100E3C00631004046382056EB366C700638A065EA2
:100E4C003306C500B336A6003307E8003308D700D5
:100E5C00370780003377E80013050600630A075C48
:100E6C00370780FF1307F7FF3377E8006FF01FD6C3
:100E7C009306F07F631AD40263960500E39C88EC1A
:100E8C006FF09FF0B7064000B376D8003363C7000D
:100E9C00E380060E639888086310030413070800A8
:100EAC00130605006FF0DFD2130400006396D8061A
:100EBC00B366C700639E0602E39205FE13080000AA
:100ECC006F0010039357670193C7170093F7170030
:100EDC00939747006FF0DFCFB7074000B377F70069
:100EEC00638E0704130400006F00800113040001DB
:100EFC00B7074000B377F700638E070063800502E5
:100F0C009304000037084000930500009308F07F1D
:100F1C006F00007E13040001639805009307040022
:100F2C006FF05FE3130400003367C700E31A07FC9C
:100F3C0013070800130605006FF05FFE1304000191
:100F4C006FF09FFE9307F07F6388F5023306C500B0
:100F5C003335A6003307E8003307A7009317F701D2
:100F6C001356160033E6C700135717009388050075
:100F7C00930700006FF0DFC56382097C9307300094
:100F8C006394F904638C047A1308F0FF1305F0FFE3
:100F9C009308E07F93075000130730006380E972D9
:100FAC00639009021377F50013064000630AC7002B
:100FBC00130745003336A7003308C8001305070094
:100FCC00639606586F000063930720006394F90042
:100FDC00639604761308F0FF1305F0FF9308E07F87
:100FEC00930750006F00006193082000B70780FF43
:100FFC009387F7FFB377F700135716001376160095
:10100C003367C7001396F7013366E60013D7170052
:10101C006FF01FF693072000E39EF9FAE38C04FAB5
:10102C001308000093050000130450006F00406C7F
:10103C006350B01063940804B367C700E38807B427
:10104C009387F5FF639E07003306C5403307E840DE
:10105C003335C5003307A740930810006F00000814
:10106C009306F07FE386D5BA9306800363D6F60227
:10107C0093070000930610006F00C0049307F07FE5
:10108C00E30EF4BA93078003E3C4B7FEB7078000FE
:10109C003367F700938705009306F00163C0F606EB
:1010AC0093050002B385F540B316B700B358F600AC
:1010BC00B315B600B3E61601B335B000B3E6B6000F
:1010CC00B357F700B306D540B307F8403337D50014
:1010DC00138606003387E740930804003709800025
:1010EC00B3772701E38607E81309F9FF3379270162
:1010FC00130A0600138408006F00002E938607FE67
:10110C0093080002B356D7009305000063881701BB
:10111C0093050004B385F540B315B700B3E5C500DE
:10112C00B335B000B3E6B600930700006FF09FF93B
:10113C00638A0512B3858840631C0406B367A80054
:10114C00639807029307F07F6392F53CB365C70081
:10115C00638005609357670193C7170093F71700D7
:10116C00939747009308F07F938406006FF05FA677
:10117C009387F5FF639007023305A640B337A600AB
:10118C0033070741130605003307F7409384060025
:10119C006FF09FEC1303F07FE38A65FA93058003ED
:1011AC0063D4F50493070000930510006F008006CC
:1011BC009307F07F6390F802B365C7006380055A0C
:1011CC009357670193C7170093F71700939747003E
:1011DC006FF09FF993078003E3C6B7FCB707800055
:1011EC003368F800938705009305F00163C2F5049A
:1011FC00130300023303F340B3156800335EF500AC
:10120C0033136500B3E5C50133336000B3E5650006
:10121C00B357F800B305B6403335B600B307F74003
:10122C00138605003387A740938406006FF01FEBED
:10123C00938507FE130E0002B355B800130300008C
:10124C006388C701130300043303F34033136800AE
:10125C003363A30033336000B3E5650093070000EC
:10126C006FF05FFB9307140093F7E77F639C071203
:10127C003363A800B365C700631A04066312030244
:10128C006392052A9384E9FF93B4140013080000B9
:10129C009305000093080000130400006F00404504
:1012AC0063880518B305C540B338B500B307E840EB
:1012BC00B3871741B7088000B3F81701638E080095
:1012CC003305A640330707413336A6003308C74021
:1012DC00938406006F00C01533E7F500E30407FAAA
:1012EC0013880700138505006F008014130EF07F20
:1012FC006314C405631E0300639E88086398050489
:10130C009304000037084000130400016F00403EB6
:10131C00B7064000B376D800638806466390880809
:10132C00E3840590B7074000B377F700E39C07BA56
:10133C00130400016F00004713040000639EC803F0
:10134C0063900502E312038E6FF09FFB370540009C
:10135C003375A700E31A05E0130400016F000002C7
:10136C00370E4000337EC70163060E00E31C03B644
:10137C006FF09FDF13040001631603429384060091
:10138C00E39E05B893040000370840009308F07FF3
:10139C006FF09FF7130400006FF05FFE1304000062
:1013AC006F004040B307C540B335F5003309E84042
:1013BC003309B940B7058000B375B900138A07002B
:1013CC006386050C330AA6403309074133364601C0
:1013DC003309C940938406006300090C1305090006
:1013EC00EF20000E930785FF130700023307F74029
:1013FC003319F9003357EA00336727013319FA0020
:10140C0063CA870EB38787401388170093070002BF
:10141C00B38707413315F700B3560901B317F90029
:10142C003365D500B337F0003365F5003358070149
:10143C00B3670501E38C07E49357F5011317180004
:10144C003307F7009317150013F6770093767500A2
:10145C0063060618130620006382C91213063000B7
:10146C006388C90C639E091413F6F70093054000BA
:10147C0093B7C7FF6312B60EB70700013377F700B7
:10148C006306070E930710006F00801FB3E7270158
:10149C00E39407F46FF01FDF13050A00EF204002FE
:1014AC00930785019306F001E3D0F6F4130785FF4B
:1014BC003317EA0063C08704B3878740138817008B
:1014CC00E3D606F5938717FE93060002B357F70091
:1014DC00130500006308D80013050004330505410B
:1014EC003315A7003335A0003365F5001308000051
:1014FC006FF01FF4B308F440B70780FF9387F7FF32
:10150C003377F700130609006FF09FA69388050048
:10151C00938406006FF0DFA513080700130506007F
:10152C006FF01FF113080700130506006FF05FDA68
:10153C0063820402B70700013377F70063100714C6
:10154C0063900616938704009308000093E7270026
:10155C006F00400A93B787FF93C71700B387E70064
:10156C0037070001B3F7E700E39E07F0930800008C
:10157C0063900614930710006FF05FFD639C0400EA
:10158C00B70700013377F700E31E07EE930800005E
:10159C006FF05FFE93B787FF93C71700B387E70021
:1015AC0037070001B3F7E700639A070CE38C06F8E2
:1015BC009386040093870400930800006FF04FE3B8
:1015CC00B70700013377F700E31E07EAE38006FC58
:1015DC0093061000930800006F00C00DB7070001C0
:1015EC003377F7006312070A6394060A9308000026
:1015FC0093070000370780003377E8006304071671
:10160C00938818001307F07F6386E80C370780FF78
:10161C001307F7FF3377E8009315D70113553500FF
:10162C00B3E5A500135737001384070093974801BF
:10163C00B706F07F1317C7001357C700B3F7D700CF
:10164C00B3E7E7009394F40133E7970013850500A3
:10165C009305070063040400732014008320C10168
:10166C000324810183244101032901018329C10041
:10167C00032A810013010102678000009387040094
:10168C00930800006FF08FD5930700006FF05FFF99
:10169C009306100093080000930700006FF08FD49E
:1016AC009386040093870400930800006FF0DF8E8C
:1016BC0093061000930710006FF01F8E63880400D0
:1016CC00E38A06F2938406006FF05FE81307850047
:1016DC006FF05F8E930500006388090013073000DC
:1016EC006392E9046396040413E45700138805001D
:1016FC009317D80193D53500B3E5B7009307F07F66
:10170C0013573800E394F8F2B3E5E5001307000033
:10171C00E38E05F0370708009305000093040000E2
:10172C006FF0DFF0130720006394E900E39E04FAE6
:10173C009305F0FF9308E07F6FF01FFB9308F07F99
:10174C006FF01F8E13080000130400006FF00FFCE5
:10175C0093840600130800006FF04FFB938406007F
:10176C006FF00FE393050500138407006FF05FF82B
:10177C00639688FC631C03F6130708001306050028
:10178C00930700016FF0CFC4E39488BA930700016C
:10179C00638C05C8B7074000B377F700130400014A
:1017AC00639007F6639E05F46FF08FF8130101FD4B
:1017BC0023248102232A5101232291012326110281
:1017CC002322910223202103232E3101232C4101BA
:1017DC0023286101232671012324810113040500B0
:1017EC00930C0600938A0600F324200013D84501BD
:1017FC001399C5001378F87F1359C90013DAF50152
:10180C00630A08029307F07F630AF808135BD5019B
:10181C0013193900336B2B01B7078000336BFB00B6
:10182C0093193500130C18C0930B0000130400001F
:10183C006F000009336BA90063020B10630E0902E1
:10184C0013050900EF10D047930755FF130BD00178
:10185C00130785FF330BFB403319E900335B64013D
:10186C00336B2B013319E4001308D0C0330CA840A0
:10187C00930909006FF05FFBEF109044130B050008
:10188C0093075B011307C00113050502E350F7FC36
:10189C00130B8BFF331B64016FF01FFD336BA9001F
:1018AC0063060B0A370408003334890093090500DA
:1018BC0013144400130B0900130CF07F930B30002E
:1018CC0013D74A011399CA001377F77F93870C003B
:1018DC001359C90093DAFA01630207089306F07FE3
:1018EC006306D70E1319390093D7DC01B3E7270130
:1018FC003709800033E92701930617C093973C0002
:10190C009305000013972B003367B7003308DC40B6
:10191C001307F7FF9306E00033465A0163ECE60E1B
:10192C009726000093860604131727003307D70069
:10193C00032707003307D70067000700930900004F
:10194C00130C0000930B10006FF05FEE9309000076
:10195C00130CF07F930B20006FF05FEDB3679901D0
:10196C00638607086300090413050900EF1050355E
:10197C00930655FF1307D001930785FF3307D74014
:10198C003319F90033D7EC00336727013399FC0086
:10199C009306D0C093070900B386A640130907002D
:1019AC006FF01FF613850C00EF10903193070500B4
:1019BC00938657011307C00113050502E35CD7FAA0
:1019CC00938787FF3397FC006FF09FFC3366990178
:1019DC0063080602370708009306F07F9305300072
:1019EC00E372E9F2130400016FF0DFF11309000058
:1019FC009307000093060000930510006FF09FF012
:101A0C0013090000930700009306F07F9305200054
:101A1C006FF05FEF63666901631C2B2F63EAF92E8D
:101A2C009316FB0113D71900939EF901135B1B004E
:101A3C00B3E9E6001315890093D68701B3E6A60037
:101A4C00135505013353AB029398060193D8080143
:101A5C009395870093D70901337BAB02130F0300D7
:101A6C0033876802131B0B01B3E7670163FEE700C2
:101A7C00B387F600130FF3FF63E8D70063F6E700B4
:101A8C00130FE3FFB387D700B387E74033DEA7021A
:101A9C001397090113570701B3F7A7023383C80340
:101AAC00939707013367F70093070E00637E670077
:101ABC003387E6009307FEFF6368D7006376670001
:101ACC009307EEFF3307D700131F0F0137090100EF
:101ADC00336FFF00330767401303F9FFB3776F00D1
:101AEC0093520F0113DE050133F36500B3836702D4
:101AFC00B3896202B307FE02B38F370193D7030198
:101B0C00B387F701B382C20363F43701B3822201B6
:101B1C0093DF0701B38F5F00B70201009382F2FFDE
:101B2C00B3F7570093970701B3F35300B3877700CC
:101B3C006368F70113090F006318F70563F6FE04D9
:101B4C00B382BE00B3B3D201B389D30033073701DC
:101B5C001309FFFF938E020063E6E6006396E6022C
:101B6C00639403026366F7016390EF0263FEF20075
:101B7C00B38255001309EFFF33BFB200330FDF0000
:101B8C00938E02003307E701338FFE403307F74192
:101B9C00B3BEEE013307D7419307F0FF6386E6121D
:101BAC00B352A70293570F013377A702938E02000B
:101BBC00B38F580213170701B3E7E70063FEF70171
:101BCC00B387F600938EF2FF63E8D70063F6F70154
:101BDC00938EE2FFB387D700B387F741B3DFA70239
:101BEC0013170F0113570701B3F7A702B388F803B4
:101BFC0093970701B367F70013870F0063FE170174
:101C0C00B387F6001387FFFF63E8D70063F617016D
:101C1C001387EFFFB387D70013950E013365E500EB
:101C2C001317050113570701B38817419357050183
:101C3C00B30EE30233836702B307FE02330EEE02E8
:101C4C0013D70E01330E6E003307C701637667009E
:101C5C0037030100B3876700135307013303F30005
:101C6C00B70701009387F7FF3377F70013170701C6
:101C7C00B3FEFE003307D70163E868009307050045
:101C8C006392680463020704B38816019307F5FF97
:101C9C00138E080063E4D80263E66800639468025C
:101CAC0063F0E5029307E5FF13951500333EB5008D
:101CBC00330EDE00338EC8019305050063146E00ED
:101CCC006304B70093E717001307F83F6352E0185B
:101CDC0093F67700638206109306200013641400B9
:101CEC00638AD40E930630006380D40E6396040E80
:101CFC0093F6F700930540006380B60E9386470079
:101D0C00B3B5F6003309B900938706006F00C00C19
:101D1C001308F8FF930E00006FF0DFD113860A0052
:101D2C00938B0500130710006388EB30E38E0BF8E0
:101D3C0093072000638AFB06370508009307000011
:101D4C001307F07F130600001315C5001355C500CB
:101D5C00131747013367A7001316F601B366C700C4
:101D6C001385070093850600630404007320140098
:101D7C008320C1020324810283244102032901022E
:101D8C008329C101032A8101832A4101032B01010B
:101D9C00832BC100032C8100832C41001301010310
:101DAC006780000013648400130500009307000093
:101DBC001307F07F6FF05FF913060A0013090B008D
:101DCC00938709006FF01FF663180600938687004F
:101DDC006FF01FF3E31C06FEB7060001B376D900C3
:101DEC00638A0600370700FF1307F7FF3379E90012
:101DFC00130708409306E07F63CCE60093D63700C8
:101E0C009317D901B3E7D700135539006FF0DFF3FF
:101E1C0093072000638AF40293073000638AF4006E
:101E2C00638A04009307F0FF1307E07F6F00000143
:101E3C00E31A06FE930700001307F07F13645400A7
:101E4C00138507006FF05FF0E30E06FC6FF09FFE4A
:101E5C006312070C93F677001307090063840604DA
:101E6C009306200013641400638CD4029306300094
:101E7C006382D4026398040293F6F7009305400042
:101E8C006382B60213B7C7FF134717003307270146
:101E9C006F0040016318060013B787FF6FF0DFFE79
:101EAC00E31C06FE1357870113471700137717001F
:101EBC00130510001308E841B3D6A700B397070128
:101ECC00B337F00033180901B3E70701B3E7F600A5
:101EDC003355A90093F677006382060A9306200017
:101EEC0013641400638AD408930630006380D4080A
:101EFC006396040893F6F700930540006380B608D8
:101F0C0093864700B3B5F6003305B50093870600FA
:101F1C006F00C006130510003305E54093068003DF
:101F2C0063C4A60A9306F00163C6A600130710004B
:101F3C006FF05FF8930610FE3387E64093050002BE
:101F4C003357E900930600006306B5001308E84315
:101F5C00B3160901B3E6F600B336D000B367D70069
:101F6C0013050000130710006FF0DFF6631806006E
:101F7C00938687006FF01FF9E31C06FEB7068000FE
:101F8C00B376D500638E06001364140013050000AD
:101F9C009307000063160702130710006FF0DFDAD7
:101FAC0093D637009317D501B3E7D70013553500F7
:101FBC00E30C07D813771400E30807D813070000C5
:101FCC00136424006FF05FD8B3E727016384070222
:101FDC009307200013641400638EF40293073000FF
:101FEC006382F4029307500063840400930710008B
:101FFC0093D7370013642400130500001307000067
:10200C006FF09FD493071000E31406FE9307900023
:10201C006FF01FFE93071000E30C06FC6FF01FFF20
:10202C0037050800930700001307F07F1306000024
:10203C00130400016FF05FD113050000930700003B
:10204C006FF0DFFB130101FD23248102232A5101D0
:10205C002324810123261102232291022320210310
:10206C00232E3101232C41012328610123267101E8
:10207C002322910113040500130C0600938A060019
:10208C007329200093DB45019399C50093FBFB7FDB
:10209C0093D9C90013DBF501638A0B029307F07F18
:1020AC00638CFB08939939009357D501B3E737013B
:1020BC00B7098000B3E93701131A3500938B1BC0A5
:1020CC00930C0000930400006F00000933EAA90090
:1020DC0063020A126380090413850900EF10403E65
:1020EC00130755FF9307D001930685FFB387E7408D
:1020FC00B399D900B357F400B3E73701B319D4003F
:10210C00930BD0C0138A0900B38BAB4093890700A3
:10211C006FF01FFBEF10C03A9307050013875701B0
:10212C009306C00113050502E3DEE6FA938787FFE9
:10213C00B317F4006FF0DFFC33EAA90063040A0C58
:10214C00B7040800B3B4990093944400130A050033
:10215C00930BF07F930C300013D74A011394CA00F1
:10216C001377F77F93070C001354C40093DAFA012A
:10217C006302070A9306F07F6306D710131434002A
:10218C009357DC01B3E787003704800033E4870002
:10219C00930617C093173C009305000013972C006F
:1021AC00B38BDB003367B7009306A00033485B01A9
:1021BC0093881B0063CCE6329306200063C8E610BC
:1021CC001307F7FF9306100063E2E612938C0500E9
:1021DC00130720006386EC6013073000638AEC6001
:1021EC00130710006390EC2C9306000013060000FC
:1021FC006F00805B93090000930B0000930C1000A0
:10220C006FF05FEC93090000930BF07F930C2000B0
:10221C006FF05FEBB3678401638607086300040407
:10222C0013050400EF10C029930655FF1307D001C6
:10223C00930785FF3307D7403314F4003357EC0072
:10224C00336787003314FC009306D0C09307040057
:10225C00B386A640130407006FF01FF413050C009F
:10226C00EF10002693070500938657011307C00152
:10227C0013050502E35CD7FA938787FF3317FC003D
:10228C006FF09FFC336C840163080C023707080065
:10229C009306F07F93053000E372E4F093040001A1
:1022AC006FF0DFEF130400009307000093060000AB
:1022BC00930510006FF09FEE1304000093070000CD
:1022CC009306F07F930520006FF05FED93061000EE
:1022DC003397E6001376075363140622937607248C
:1022EC006396064E137787086312072237030100A3
:1022FC009305F3FF13570A0113D50701337ABA007C
:10230C00B3F2B700B3874203330E570213D607015B
:10231C00B3064503B386C6013306D600B30EA70237
:10232C006374C601B38E6E00935606013376B60005
:10233C00B3F7B700135F0401B375B40013160601AD
:10234C003306F6003304BA02B307B702330A4F035D
:10235C00330EE703330AFA0013570401330747011E
:10236C006376F700B7070100330EFE00B7030100D8
:10237C00938FF3FFB377F701135307013374F40111
:10238C003303C301B3FFF90113DE0901939707016E
:10239C00B3878700B309C503B386F6003384F20311
:1023AC003305F50313570401B3025E0233055500E0
:1023BC003307A70063745700B389790013550701DD
:1023CC0033053501B70901009383F9FF33777700A3
:1023DC001317070133747400B30287003384BF02F0
:1023EC00B305BE0213570401330ECF03330FFF03A3
:1023FC00330FBF00330FE7016374BF00330E3E0190
:10240C0033777F003374740013170701B386D6013A
:10241C003307870033036700B3B7F600B307F30045
:10242C00B38556003385A700B3B6D500B306D500E7
:10243C003337E30033B367003334F5003367670099
:10244C0033B5A600135F0F013307E7013364A40013
:10245C003304E4003304C40193D7760113149400BD
:10246C003364F40093979500B3E7C700B337F000DB
:10247C0093D5750137070001B3E7B7009396960023
:10248C003377E400B3E7D7006306070813D71700C8
:10249C0093F717003367F7009317F401B367F7004E
:1024AC00135414001387F83F635AE01493F6770023
:1024BC00638E06069306200093E414006306D90687
:1024CC0093063000630CD9046312090693F6F700E7
:1024DC0013064000638CC6049386470033B6F6009F
:1024EC003304C400938706006F0040049306F00089
:1024FC006300D7309306B000630AD70013080B00B3
:10250C001384090093070A006FF09FCC13880A000C
:10251C006FF0DFCB93880B006FF0DFF863180800C7
:10252C00938687006FF09FFBE31C08FEB706000143
:10253C00B376D400638A0600370700FF1307F7FF52
:10254C003374E400138708409306E07F63C8E60603
:10255C0093D737001316D4013366F6009356340024
:10256C009396C6001317470193D6C6003367D7005E
:10257C001318F801B36707011305060093850700CC
:10258C006384040073A014008320C102032481021D
:10259C0083244102032901028329C101032A8101F9
:1025AC00832A4101032B0101832BC100032C8100E1
:1025BC00832C410013010103678000009307200066
:1025CC00630AF90293073000630AF900630A0900F1
:1025DC001306F0FF1307E07F6F000001E31A08FEFB
:1025EC00130600001307F07F93E4540093060600D3
:1025FC006FF01FF7E30E08FC6FF09FFE6312070CE1
:10260C0093F67700130704006384060493062000F6
:10261C0093E41400630CD902930630006302D902D0
:10262C006318090293F6F700130640006382C60292
:10263C0013B7C7FF13471700330787006F0040011C
:10264C006318080013B787FF6FF0DFFEE31C08FE6A
:10265C0013578701134717001377170093061000C1
:10266C009388E84133D6D700B3971701B337F000FE
:10267C00B3181401B3E71701B367F600B356D400CF
:10268C0013F677006302060A1306200093E4140085
:10269C00630AC908130630006300C90863160908E9
:1026AC0013F6F700930540006300B6081386470045
:1026BC00B335F600B386B600930706006F00C0066C
:1026CC0093061000B386E640130680036344D60AD3
:1026DC001306F0016346D600130710006FF05FF885
:1026EC00130610FE3307E640930500023357E4004F
:1026FC00130600006386B6009388E8433316140172
:10270C003366F6003336C000B367C700930600008B
:10271C00130710006FF0DFF66318080013868700AC
:10272C006FF01FF9E31C08FE3706800033F6C60075
:10273C00630E060093E414009306000013060000D9
:10274C0063160702130710006FF09FE11396D60172
:10275C0093D737003366F60093D63600E30207E0D2
:10276C0013F71400E30E07DE1307000093E42400B4
:10277C006FF01FDF33E68700630406029307200027
:10278C0093E41400630EF902930730006302F9021C
:10279C00130650006304090013061000135636008C
:1027AC0093E4240093060000130700006FF05FDB36
:1027BC0013061000E31408FE130690006FF01FFEC2
:1027CC0013061000E30C08FC6FF01FFFB70608009F
:1027DC001307F07F13080000930400016FF05FD81B
:1027EC0093060000130600001307F07F6FF05FD70D
:1027FC00B7060800130600001307F07F130800004B
:10280C006FF01FD6130101FE232E1100232C810023
:10281C00232A91002328210123263101232441015D
:10282C00F3292000B70710009387F7FF33F7B700A1
:10283C00131737009358D501B3F7D700B3E8E80066
:10284C0013D7460113D445011358D60193D4F5017F
:10285C00939737001377F77F9305F07F1374F47F0A
:10286C001315350093D6F6013368F80013163600AD
:10287C006318B704B365C80093071480638405021A
:10288C0013830600639CD45E6380072C63060402EA
:10289C009357680193C7170093F717009397470056
:1028AC006F00C00713C31600639A645E638E07281B
:1028BC0093060000631C045E1304F07F6F0000207D
:1028CC0013C31600B307E4406390644C6358F018CC
:1028DC006316070AB367C800639E0700630EB4064D
:1028EC001388080013060500930700001307040063
:1028FC006F00C0029307F4FF639E07043306C50004
:10290C00338808013335A6003308A8003707800048
:10291C003377E800631A07421307100093767600AA
:10292C009308080013050600E380062693060000B2
:10293C001306200093E717006390C93C6382043EA2
:10294C0013068500B335A600B388B800130506003E
:10295C006F0050236310B40CB3E6A800E38A063072
:10296C0093D7680193C7170093F717009397470005
:10297C0013880800130605006F0000186318B400D4
:10298C00B3E6A800638606226FF09FFD1307800351
:10299C006346F708370780003368E8001307F00137
:1029AC006344F70893060002B386F6403317D80049
:1029BC00B355F600B316D6003367B700B336D00064
:1029CC003367D700B357F8003306A7003337E60058
:1029DC00B38717013388E70013070400B70780009B
:1029EC00B377F8006384072E130417009307F07F66
:1029FC00631EF4346388090093073000639EF93634
:102A0C006392042E930800009306000013075000F5
:102A1C006F00C02113078003E352F7F893070000FF
:102A2C00130710006FF05FFA138707FE930500027F
:102A3C003357E800930600006388B7009306000440
:102A4C00B386F640B316D800B3E6C600B336D00052
:102A5C003367D700930700006FF01FF76386070EEC
:102A6C00B3078740630A04049306800363CEF60819
:102A7C00B7068000B3E8D8009306F00163CCF608E3
:102A8C0093050002B385F540B396B8003353F500B7
:102A9C00B315B500B3E66600B335B000B3E6B600C7
:102AAC00B3D7F8003386C600B3870701B336D60018
:102ABC003388D7006FF09FF213840700B3E7A800A8
:102ACC00639807009307F07F6314F42A6F004001AA
:102ADC009307F4FFE38407E29306F07F6312D402BA
:102AEC00B366C8006386060C9357680193C717003A
:102AFC0093F71700939747001307F07F6FF01FE2CF
:102B0C0093068003E3DAF6F69307000093061000B1
:102B1C006FF05FF9938607FE13030002B3D6D8005B
:102B2C00930500006388670093050004B385F540A6
:102B3C00B395B800B3E5A500B335B000B3E6B60065
:102B4C00930700006FF01FF69306140093F7E67FCF
:102B5C0063980714B3E6A80063100404638A067034
:102B6C003367C800630607623306C5003337A60017
:102B7C0033880801B308E8003707800033F7E80012
:102B8C001305060063060760370880FF1308F8FF7B
:102B9C0033F808016FF05FD89305F07F6310B4042D
:102BAC00639C0600E31A87F4B366C800E39206CE72
:102BBC00930800006F000030B705400033FEB800EA
:102BCC003363C800E3020E0C631C870A631603020E
:102BDC0013880800130605006FF05FD46316B7085E
:102BEC00B365C80063920502E39406FE93080000E7
:102BFC001304F07F6F00002CB375B800638E0508CA
:102C0C00130700006F00800113070000B707400096
:102C1C00B377F80063820706638C06049304000004
:102C2C00B7084000930600001304F07F9397D80177
:102C3C0093D63600B3E6D7009307F07F13D638004F
:102C4C006310F478B3E6C60013060000638A0676B8
:102C5C003706080093060000930400006F004076CE
:102C6C00130700016FF09FFA13070000639C060026
:102C7C00930707006FF05FE8130700016FF01FFF69
:102C8C00130700003368C800E31A08F8138808001B
:102C9C00130605006FF0DFFD130700016FF09FFEB8
:102CAC009307F07F6388F6023306C5003335A60020
:102CBC00338808013308A8009317F801135616003F
:102CCC0033E6C7001358180013870600930700005B
:102CDC006FF0DFC4638A0978930730006396F904B8
:102CEC0063840478930600009308F0FF1305F0FF4B
:102CFC001307E07F93075000130630006382C96806
:102D0C00639009021376F50093054000630AB60040
:102D1C0013064500B335A600B388B80013050600AA
:102D2C006396065C6F004066930720006394F9007D
:102D3C00639C04729308F0FF1305F0FF1307E07F08
:102D4C00930750006F00406413042000B70780FF06
:102D5C009387F7FFB377F800135716001376160016
:102D6C003367C7001396F7013366E60013D81700D4
:102D7C00130704006FF09FF593072000E39CF9FA0A
:102D8C00E38A04FA6FF01FC8635AF0126312070447
:102D9C00B367C800E38407B49307F4FF639E07008E
:102DAC003306C540338808413335C5003308A84085
:102DBC00130710006F004007E300B4BA1307800339
:102DCC006352F70293070000130710006F004004D2
:102DDC00E308B4BA13078003E346F7FE3707800015
:102DEC003368E8001307F0016340F706930600020E
:102DFC00B386F6403317D800B355F600B316D60099
:102E0C003367B700B336D0003367D700B357F80039
:102E1C003307E5403338E500B387F8401306070065
:102E2C00338807411307040037098000B377280162
:102E3C00E38E07E81309F9FF33792801130A06001A
:102E4C00130407006F00402F138707FE9305000241
:102E5C003357E800930600006388B700930600041C
:102E6C00B386F640B316D800B3E6C600B336D0002E
:102E7C003367D700930700006FF09FF96380071446
:102E8C00630C04069357680193C7170093F7170058
:102E9C0093974700938406006FF05FA86380071236
:102EAC0063020406930600009304030093080000D9
:102EBC0013040700130700006FF05FD7638007103F
:102ECC00B3078740631204069304030013840700BE
:102EDC00B3E7A800E38807BE9307F4FF63980702E3
:102EEC003305A640B337A600330818411306050076
:102EFC003308F8406FF0DFEB938406001304F07F87
:102F0C006FF01FFD930403006FF05FFF9306F07FDB
:102F1C00E308D4BC9306800363D2F6029307000047
:102F2C00930610006F0040049306800363C4F608F8
:102F3C00B7068000B3E8D800930403009306F001B1
:102F4C0063C0F60493050002B385F540B396B80050
:102F5C003353F500B315B500B3E66600B335B000D6
:102F6C00B3E6B600B3D7F800B306D640B335D600F7
:102F7C00B307F840138606003388B7406FF0DFEADA
:102F8C00938607FE13030002B3D6D8009305000006
:102F9C006388670093050004B385F540B395B800CA
:102FAC00B3E5A500B335B000B3E6B6009307000057
:102FBC006FF09FFB930403006FF05FF69307140010
:102FCC0093F7E77F63900714B366C800B3E5A800D6
:102FDC0063180406639005026392062A9384E9FF42
:102FEC0093B414009308000093060000130400002F
:102FFC006FF05FEC638E06183307C540B336E500FF
:10300C00B3870841B387D740B7068000B3F6D70023
:10301C00638E06003305A640330818413336A600EC
:10302C00B308C840930403006F008016B366F70022
:10303C00E38606FA93880700130507006F00401516
:10304C00130EF07F6316C405639205026310870AA2
:10305C009304000063880604B7054000B375B800FC
:10306C00638A0508930403006FF05F8B37064000FA
:10307C00B3F5C8006386054263128708E38A068E9F
:10308C003376C800E31E06B6130700016F00C0427A
:10309C00631AC703639E0600E39C058C930400002F
:1030AC001304F07FB7084000130700016FF01FB83E
:1030BC00370E4000337EC80163060E02E39205B45E
:1030CC006FF05FFA130700006398053E930403004A
:1030DC00E39006BA93040000B70840001304F07F95
:1030EC006FF09FFC130700016FF01FFE1307000029
:1030FC006FF0DFFD130700016FF05FFD1307000099
:10310C006F00803BB307C5403337F5003389084166
:10311C003309E940370780003377E900138A070049
:10312C006308070C330AA6403309184133364601AD
:10313C003309C940930403006302090C1305090009
:10314C00EF000038130785FF130500023305E54037
:10315C003319E9003355AA00336825013319EA0005
:10316C00634C870E330787409308170093070002C0
:10317C00B38717413317F800B3561901B317F90089
:10318C003367D700B337F0003365F700B358180135
:10319C00B3671501E38807E49357F50113971800FB
:1031AC003307F7009317150013F677009376750025
:1031BC0063040618130620006380C912130630003E
:1031CC006384C90C639C091413F6F7009305400043
:1031DC0093B7C7FF631EB60CB70700013377F70030
:1031EC0063140718639A0618930710006F000010F9
:1031FC00B3E72701E39207F46FF05FDE13050A00D3
:10320C00EF00002C130785019307F001E3DEE7F2D2
:10321C00130585FF3318AA006340870433078740E2
:10322C0093081700E3D417F5130717FE9307000252
:10323C003357E800130500006388F80013050004F9
:10324C00330515413315A8003335A0003365E5006F
:10325C00930800006FF0DFF3B70780FF9387F7FF49
:10326C003307E4403378F800130609006FF01FA60B
:10327C0093080800130506006FF09FF193080800EF
:10328C00130506006FF01FDA63820402B707000112
:10329C003377F7006314070C9387040063880604E4
:1032AC0093860400130700006FF01FA593B787FFE8
:1032BC0093C71700B387E70037070001B3F7E700A0
:1032CC006394070A13070000E38006F293061000CC
:1032DC00930710006FF05FA2639E0400B707000114
:1032EC003377F70093071000631C070693E727005A
:1032FC006F00800993B787FF93C71700B387E70068
:10330C0037070001B3F7E700639A070463960610CA
:10331C0093870400130700006FF05FFDB7070001EF
:10332C003377F70063120704E38006EC9306100072
:10333C00130700006FF0DFF9B70700013377F700D0
:10334C0063180702930700006380060493061000BD
:10335C0013070000930700006FF08FDD93870400C4
:10336C00130700006FF04FDC930710006FF05FFF46
:10337C00930700006FF0DFFE130700006FF01FF5DE
:10338C00638804086392060AB7068000B3F6D80077
:10339C006384060E130417001307F07F630AE40816
:1033AC00370680FF1306F6FF33F6C8009316D601D6
:1033BC0013553500B3E6A6001356360013870700E5
:1033CC00B707F07F131444011316C6003374F400CE
:1033DC001356C6003364C4009394F401B36794008D
:1033EC0013850600938507006304070073201700FC
:1033FC008320C1010324810183244101032901019C
:10340C008329C100032A8100130101026780000097
:10341C00130685006FF01F909386040093870400B9
:10342C00130700006FF08FD1938406006FF01FEC30
:10343C00930600006388090013073000639AE900C3
:10344C00639E040013E75700938806006FF00FFE8D
:10345C00130720006394E900E39604FE9306F0FF43
:10346C001304E07F6FF01FFE1304F07F6FF08FD911
:10347C00930800006FF08FFB130407009306050000
:10348C00138707006FF08FFAE3188780631A03FC29
:10349C001388080013060500930700016FF00FC88E
:1034AC00E31487BE93070001638406CC3376C8000F
:1034BC0013070001631406F6639206F66FF00FFD16
:1034CC00B7070100637AF5029337051093C717000D
:1034DC0093973700130700023307F7403355F50075
:1034EC00970700009387C74BB387A70003C5070056
:1034FC003305A740678000003707000193070001E0
:10350C00E36AE5FC930780016FF0DFFC930505008F
:10351C009306000013060000130500006F004028FE
:10352C00B347B50093F73700B308C500639407069B
:10353C009307300063F0C706937735001307050037
:10354C00639A070613F6C8FFB306E640930700021A
:10355C0063CED70893860500930707006378C702EC
:10356C0003A80600938747009386460023AE07FF07
:10357C00E3E8C7FE9307F6FFB387E74093F7C7FF6F
:10358C00938747003307F700B385F500636817018D
:10359C0067800000130705006378150583C70500D5
:1035AC001307170093851500A30FF7FEE398E8FEA9
:1035BC006780000083C60500130717009377370058
:1035CC00A30FD7FE93851500E38E07F683C605007F
:1035DC001307170093773700A30FD7FE93851500B9
:1035EC00E39A07FC6FF01FF667800000130101FFE0
:1035FC00232681001304000283A3050083A2450047
:10360C0083AF850003AFC50083AE050103AE450152
:10361C0003A3850103A8C50183A60502130747026E
:10362C00B307E640232E77FC232057FE2322F7FF17
:10363C002324E7FF2326D7FF2328C7FF232A67FE6F
:10364C00232C07FF232ED7FE93854502E346F4FA7D
:10365C0093860500930707006378C70203A806004A
:10366C00938747009386460023AE07FFE3E8C7FE27
:10367C009307F6FFB387E74093F7C7FF938747009D
:10368C003307F700B385F500636817010324C10005
:10369C00130101016780000083C7050013071700A1
:1036AC0093851500A30FF7FEE382E8FE83C70500A0
:1036BC001307170093851500A30FF7FEE39EE8FC94
:1036CC006FF0DFFC1303F00013070500637EC302E9
:1036DC009377F7006390070A63920508937606FFC9
:1036EC001376F600B386E6002320B7002322B7003A
:1036FC002324B7002326B70013070701E366D7FE80
:10370C006314060067800000B306C340939626003E
:10371C0097020000B38656006780C6002307B700E7
:10372C00A306B7002306B700A305B7002305B7000F
:10373C00A304B7002304B700A303B7002303B70007
:10374C00A302B7002302B700A301B7002301B700FF
:10375C00A300B7002300B7006780000093F5F50FB6
:10376C0093968500B3E5D50093960501B3E5D50096
:10377C006FF0DFF69396270097020000B386560091
:10378C0093820000E78006FA93800200938707FF7C
:10379C003307F7403306F600E378C3F66FF0DFF338
:1037AC00171700000327C7C883278714638C0704E7
:1037BC0003A747001308F001634EE806131827000F
:1037CC0063060502338307012324C30883A88718E3
:1037DC00130610003316E600B3E8C80023A417192B
:1037EC002324D310930620006304D502130717007B
:1037FC0023A2E700B387070123A4B7001305000039
:10380C00678000009307C7142324F7146FF05FFA46
:10381C0083A6C7181307170023A2E700B3E6C60058
:10382C0023A6D718B387070123A4B70013050000FC
:10383C00678000001305F0FF67800000130101FD95
:10384C00232C4101171A0000032A8ABE23202103CE
:10385C0003298A1423261102232481022322910294
:10386C00232E3101232A51012328610123267101C2
:10387C002324810163000904130B0500938B0500BD
:10388C00930A10009309F0FF832449001384F4FF7A
:10389C006342040293942400B304990063840B04E0
:1038AC0083A74410638077051304F4FF9384C4FF4B
:1038BC00E31634FF8320C1020324810283244102D6
:1038CC00032901028329C101032A8101832A4101B1
:1038DC00032B0101832BC100032C81001301010375
:1038EC00678000008327490083A644009387F7FF75
:1038FC00638E870423A20400E38806FA83278918C1
:10390C0033978A00032C4900B377F70063920702C0
:10391C00E78006000327490083278A146314870174
:10392C00E38427F9E38807F8138907006FF0DFF5C4
:10393C008327C91883A544083377F700631C070055
:10394C0013050B00E78006006FF0DFFC23228900D3
:10395C006FF09FFA13850500E78006006FF09FFB60
:10396C0044E4FFFFD8E6FFFFBCE3FFFFD8E6FFFF10
:10397C00C0E6FFFFD8E6FFFFBCE3FFFF48E4FFFF14
:10398C0048E4FFFFC0E6FFFFBCE3FFFF58E4FFFF86
:10399C0058E4FFFF58E4FFFFD8E3FFFF00010202E9
:1039AC0003030303040404040404040405050505CB
:1039BC0005050505050505050505050506060606A7
:1039CC00060606060606060606060606060606068B
:1039DC000606060606060606060606060707070777
:1039EC00070707070707070707070707070707075B
:1039FC00070707070707070707070707070707074B
:103A0C00070707070707070707070707070707073A
:103A1C000707070707070707070707070808080826
:103A2C00080808080808080808080808080808080A
:103A3C0008080808080808080808080808080808FA
:103A4C0008080808080808080808080808080808EA
:103A5C0008080808080808080808080808080808DA
:103A6C0008080808080808080808080808080808CA
:103A7C0008080808080808080808080808080808BA
:103A8C0008080808080808080808080808080808AA
:0C3A9C00080808080808080808080808BE
:103AA8001000000000000000037A5200017C0101B0
:103AB8001B0D02001000000018000000F0CFFFFFEF
:103AC8000800000000000000100000002C000000AA
:103AD800E4CFFFFF08000000000000001000000015
:103AE80040000000D8CFFFFF0800000000000000E1
:103AF8001000000054000000CCCFFFFF08000000B9
:103B0800000000001000000068000000C0CFFFFFA8
:103B18000800000000000000100000007C00000009
:103B2800B4CFFFFF080000000000000010000000F4
:103B380090000000A8CFFFFF080000000000000070
:103B480010000000A40000009CCFFFFF0800000048
:103B58000000000010000000B800000090CFFFFF38
:103B6800080000000000000010000000CC00000069
:103B780084CFFFFF080000000000000010000000D4
:103B8800E000000078CFFFFF080000000000000000
:103B980010000000F40000006CCFFFFF08000000D8
:043BA8000000000019
:04400000000200F0CA
:10400800000000000000000000000000FC4200F07A
:10401800644300F0CC4300F0000000000000000002
:104028000000000000000000000000000000000088
:104038000000000000000000000000000000000078
:104048000000000000000000000000000000000068
:104058000000000000000000000000000000000058
:104068000000000000000000000000000000000048
:104078000000000000000000000000000000000038
:104088000000000000000000000000000000000028
:104098000000000000000000000000000000000018
:1040A8000000000000000000000000000000000008
:1040B80001000000000000000E33CDAB34126DE6A5
:1040C800ECDE05000B00000000000000000000000E
:1040D80000000000000000000000000000000000D8
:1040E80000000000000000000000000000000000C8
:1040F80000000000000000000000000000000000B8
:1041080000000000000000000000000000000000A7
:10443800104000F0000000007233DC801FA3B04081
:0C4448007C0F971C67CBB440104000F0C4
:04000005F000000007
:00000001FF
